:100000000C9459000C9481000C9481000C94810094
:100010000C9481000C9481000C9481000C9481005C
:100020000C9481000C9481000C9481000C9481004C
:100030000C9481000C9481000C9481000C9481003C
:100040000C94AD010C9481000C9413030C94560392
:100050000C9481000C9481000C9481000C9481001C
:100060000C9453080C94810000000007000201006A
:100070000003040600000000000000000102040864
:100080001020408001020408102001020408102002
:10009000040404040404040402020202020203032E
:1000A0000303030300000000250028002B001404B4
:1000B000710711241FBECFEFD8E0DEBFCDBF11E026
:1000C000A0E0B1E0E6E5F8E102C005900D92A633AC
:1000D000B107D9F712E0A6E3B1E001C01D92A93A39
:1000E000B107E1F710E0C2EBD0E004C02297FE01B7
:1000F0000E94250CCE3AD107C9F70E9493060C94B2
:10010000DF090C940000CF93DF93D82FC62F6AE647
:1001100089EE91E00E9451076D2F89EE91E00E94D7
:10012000F8066C2F89EE91E00E94F80689EE91E0C6
:10013000DF91CF910C946E07CF93C82F6AE689EEBA
:1001400091E00E9451076C2F89EE91E00E94F80621
:1001500089EE91E00E946E0741E050E06AE670E0AF
:1001600089EE91E00E944E07C0E089EE91E00E9486
:10017000A006892B31F089EE91E00E94A806C82FD5
:10018000F4CF8C2FCF91089540E855E260E070E005
:100190008FE391E00E9491038FE391E00E941204AB
:1001A0008823D1F389EE91E00E9437078FE00E9407
:1001B0009C0040E150E0682F8FE391E00E947D05B4
:1001C0006FE080E20C9483002F923F924F925F92F7
:1001D0006F927F928F929F92AF92BF92CF92DF9257
:1001E000EF92FF920F931F93CF93DF9389E20E94C8
:1001F0009C00C82FD0E0DC2FCC2788E20E949C0016
:10020000C82BBE01882777FD8095982F0E94E60AAB
:100210002B013C018BE20E949C00082F10E0102F64
:1002200000278AE20E949C00082BB801882777FDEE
:100230008095982F0E94E60A4B015C018DE20E9496
:100240009C00282E312C322C22248CE20E949C000F
:10025000282AB101882777FD8095982F0E94E60A09
:100260006B017C014AE050E0BE018FE391E00E9407
:10027000680566E071E08FE391E00E94A8044AE01F
:1002800050E0B8018FE391E00E94680566E071E0FC
:100290008FE391E00E94A8044AE050E0B1018FE3AF
:1002A00091E00E94680566E071E08FE391E00E94B2
:1002B000A80429E23CE54FE05CE3C301B2010E94DF
:1002C0009A0BAB01BC0122E030E08FE391E00E9489
:1002D0007F0666E071E08FE391E00E94A80429E2C6
:1002E0003CE54FE05CE3C501B4010E949A0BAB0111
:1002F000BC0122E030E08FE391E00E947F0666E0DF
:1003000071E08FE391E00E94A80429E23CE54FE010
:100310005CE3C701B6010E949A0BAB01BC0122E06D
:1003200030E08FE391E00E9481066AE070E080E0B7
:1003300090E0DF91CF911F910F91FF90EF90DF90B0
:10034000CF90BF90AF909F908F907F906F905F9075
:100350004F903F902F900C941A021F920F920FB65D
:100360000F9211242F933F938F939F93AF93BF933B
:100370008091370190913801A0913901B0913A01F3
:100380003091360123E0230F2D3720F40196A11D73
:10039000B11D05C026E8230F0296A11DB11D2093B3
:1003A00036018093370190933801A0933901B093BF
:1003B0003A0180913B0190913C01A0913D01B091A7
:1003C0003E010196A11DB11D80933B0190933C011C
:1003D000A0933D01B0933E01BF91AF919F918F914A
:1003E0003F912F910F900FBE0F901F9018953FB720
:1003F000F89480913B0190913C01A0913D01B09116
:100400003E0126B5A89B05C02F3F19F00196A11DFE
:10041000B11D3FBF6627782F892F9A2F620F711D5C
:10042000811D911D42E0660F771F881F991F4A9515
:10043000D1F70895CF92DF92EF92FF92CF93DF939F
:100440006B017C010E94F701EB01C114D104E104AE
:10045000F10479F00E94F7016C1B7D0B683E73403C
:10046000A0F381E0C81AD108E108F108C851DC4FB7
:10047000ECCFDF91CF91FF90EF90DF90CF90089578
:10048000789484B5826084BD84B5816084BD85B56F
:10049000826085BD85B5816085BDEEE6F0E0808136
:1004A00081608083E1E8F0E0108280818260808357
:1004B000808181608083E0E8F0E0808181608083DA
:1004C000E1EBF0E0808184608083E0EBF0E080810C
:1004D00081608083EAE7F0E08081846080838081AE
:1004E0008260808380818160808380818068808356
:1004F0001092C1000895FC0124853585F901E05C66
:10050000FF4F80819181F901EE5BFF4F20813181A6
:10051000821B930B8F7399270895FC018485958521
:10052000FC01E05CFF4F40815181FC01EE5BFF4F1D
:10053000208131814217530741F00190F081E02D75
:10054000E80FF91F808190E008958FEF9FEF0895E5
:10055000FC0184859585FC01E05CFF4F4081518161
:10056000FC01EE5BFF4F208131814217530779F088
:10057000A081B181A80FB91F8C91208131812F5F9B
:100580003F4F2F7333273183208390E008958FEFFF
:100590009FEF0895FC0181A1882329F0A489B589E2
:1005A0008C9186FFFBCF11A20895CF93DF93FC01BE
:1005B00026853785D901A05CBF4F8D919C911197FD
:1005C00001968F739927E901CE5BDF4F48815981EE
:1005D00084179507D9F30D90BC91A02DA20FB31FDE
:1005E0006C93A685B785A05CBF4F11969C938E93A4
:1005F000A689B7892C9181E090E0078C02C0880F12
:10060000991F0A94E2F7282B2C9381E081A3048898
:10061000F589E02D80818064808381E090E0DF9126
:10062000CF91089508951F920F920FB60F92112443
:100630002F933F934F938F939F93EF93FF938091CB
:10064000C00082FD1CC04091C6008091E5019091E0
:10065000E60101968F7399272091E7013091E80117
:100660008217930771F0E091E501F091E601EB55F7
:10067000FE4F40839093E6018093E50102C0809194
:10068000C600FF91EF919F918F914F913F912F91D4
:100690000F900FBE0F901F9018958FE391E00E946E
:1006A0007B02892B11F00C94120308951F920F9274
:1006B0000FB60F9211242F933F938F939F93EF9335
:1006C000FF932091A1013091A2018091A30190910B
:1006D000A4012817390731F48091C1008F7D8093E0
:1006E000C10014C0E091A301F091A401EF59FE4FA5
:1006F00020818091A3019091A40101968F73992785
:100700009093A4018093A3012093C600FF91EF91E1
:100710009F918F913F912F910F900FBE0F901F903F
:100720001895CF92DF92EF92FF92CF93DF93EC0177
:100730006A017B01411581EE580761057105F9F0E9
:10074000EC89FD8981E090E008A002C0880F991F24
:100750000A94E2F7808360E079E08DE390E0A701FE
:1007600096010E94010C2150310941095109569509
:10077000479537952795211580E1380798F0EC8942
:10078000FD89108260E874E88EE190E0A70196018F
:100790000E94010C21503109410951095695479594
:1007A00037952795E889F9893083EA89FB89208381
:1007B00019A2EE89FF89408181E090E09C010C8CB8
:1007C00002C0220F331F0A94E2F7422B4083EE89C6
:1007D000FF8940819C010D8C02C0220F331F0A94B7
:1007E000E2F7422B4083EE89FF8940819C010E8C09
:1007F00002C0220F331F0A94E2F7422B4083EE8996
:10080000FF8920810F8C02C0880F991F0A94E2F79C
:10081000809582238083DF91CF91FF90EF90DF90CE
:10082000CF90089581E00895109242011092410105
:1008300088EE93E0A0E0B0E0809343019093440100
:10084000A0934501B09346018CE091E09093400164
:1008500080933F0185EA91E090934C0180934B0196
:1008600081E691E090934E0180934D0185EC90E0FC
:100870009093500180934F0184EC90E0909352014B
:100880008093510180EC90E0909354018093530148
:1008900081EC90E0909356018093550182EC90E0BA
:1008A000909358018093570186EC90E090935A0101
:1008B0008093590184E080935B0183E080935C0125
:1008C00087E080935D0185E080935E0181E0809305
:1008D0005F010895CF92DF92EF92FF920F931F93E3
:1008E000CF93DF936C017A01EB01E60EF71E00E077
:1008F00010E0CE15DF0561F06991D601ED91FC9114
:100900000190F081E02DC6010995080F191FF1CF64
:10091000C801DF91CF911F910F91FF90EF90DF9071
:10092000CF9008956115710581F0DB010D900020D5
:10093000E9F7AD0141505109461B570BDC01ED9120
:10094000FC910280F381E02D099480E090E008950D
:100950000C949204DC01ED91FC910190F081E02D6A
:1009600009940F931F93CF93DF93EC016DE00E94E6
:10097000AA048C016AE0CE010E94AA04800F911F94
:10098000DF91CF911F910F9108958F929F92AF9217
:10099000BF92CF92DF92EF92FF920F931F93CF936C
:1009A000DF93CDB7DEB7A1970FB6F894DEBF0FBEC9
:1009B000CDBF7C01C42EE52FCB01D22E19A221E0A0
:1009C0002D1510F02AE0D22E8E010F5D1F4F8D2CB9
:1009D000912CA12CB12C6C2D7E2FA50194010E948D
:1009E000010C8C2DD29E80191124015011098A30DE
:1009F00014F4805D01C0895CF80180832115310504
:100A00004105510521F0C22EE32FCA01E4CFB80100
:100A1000C7010E949204A1960FB6F894DEBF0FBEE4
:100A2000CDBFDF91CF911F910F91FF90EF90DF909D
:100A3000CF90BF90AF909F908F900895CF92DF920C
:100A4000EF92FF920F931F93CF93DF93EC016A0114
:100A50007B012115310579F4E881F9810190F0815C
:100A6000E02D642FDF91CF911F910F91FF90EF90B8
:100A7000DF90CF9009942A303105E9F477FF1AC04E
:100A80006DE20E94AA048C0144275527BA014C1933
:100A90005D096E097F092AE0CE010E94C504800F1E
:100AA000911FDF91CF911F910F91FF90EF90DF90F9
:100AB000CF9008952AE0B701A601CE01DF91CF9132
:100AC0001F910F91FF90EF90DF90CF900C94C50491
:100AD0009A01AB01662757FD6095762F0C941E0591
:100AE0002115310541F4DC01ED91FC910190F0817B
:100AF000E02D642F09940C94C5040F931F93CF939A
:100B0000DF93EC019A01462F50E060E070E00E9414
:100B100070058C01CE010E94B104800F911FDF91FE
:100B2000CF911F910F9108954F925F926F927F9294
:100B30008F929F92AF92BF92CF92DF92EF92FF92ED
:100B40000F931F93CF93DF93EC016A017B01B22EC9
:100B50009A01AB01C701B6010E94FD0B882319F071
:100B600068E171E027C026013701E89477F82FEF9C
:100B70003FEF4FE75FE7C301B2010E94FD0B811118
:100B80000DC02FEF3FEF4FE75FE7C301B2010E94B7
:100B9000470A18161CF46CE171E00CC02FEF3FEF10
:100BA0004FE75FE4C701B6010E94960B1816ACF43C
:100BB00060E271E0CE01DF91CF911F910F91FF9024
:100BC000EF90DF90CF90BF90AF909F908F907F90ED
:100BD0006F905F904F900C9492042FEF3FEF4FE790
:100BE0005FECC701B6010E94470A87FDE1CF20E014
:100BF00030E0A901C701B6010E94470A87FF0AC079
:100C00006DE2CE010E94AA048C01F7FAF094F7F885
:100C1000F09402C000E010E0A12C60E070E080E001
:100C20009FE3AB1441F020E030E040E251E40E9449
:100C30004B0AA394F6CF9B01AC01C701B6010E94F9
:100C4000E3096B017C010E94B80A2B013C010E9460
:100C5000E40A9B01AC01C701B6010E94E2096B01E5
:100C60007C012AE0B301A201CE010E94C504080F55
:100C7000191FBB2039F064E271E0CE010E9492049A
:100C8000080F191F7B2C772041F120E030E040E273
:100C900051E4C701B6010E949A0B6B017C010E94CE
:100CA000B30A4B01AA2497FCA094BA2C2AE030E0A6
:100CB000B501A401CE010E941E05080F191FC50130
:100CC000B4010E94E60A9B01AC01C701B6010E9473
:100CD000E2096B017C017A94D6CFC801DF91CF91F4
:100CE0001F910F91FF90EF90DF90CF90BF90AF904A
:100CF0009F908F907F906F905F904F9008950C948D
:100D000094050F931F93CF93DF93EC010E949405FA
:100D10008C01CE010E94B104800F911FDF91CF9111
:100D20001F910F9108950E9440020E94C400CDE4DB
:100D3000D3E00E94E4002097E1F30E944D03F9CF35
:100D40008091190290E020911A02821B9109089566
:100D500020911A0280911902281750F4E22FF0E036
:100D6000E55EFD4F808190E02F5F20931A02089589
:100D70008FEF9FEF0895E0911A0280911902E81712
:100D800030F4F0E0E55EFD4F808190E008958FEF54
:100D90009FEF08950895CF92DF92EF92FF920F9305
:100DA0001F93CF93DF937C01CB018A012091F50142
:100DB000222389F0EB016B01C40ED51ECC15DD0595
:100DC00069F06991D701ED91FC910190F081E02DDE
:100DD000C7010995F3CF642F0E942A08C801DF914B
:100DE000CF911F910F91FF90EF90DF90CF900895DA
:100DF000CF93DF931F92CDB7DEB769832091F501C2
:100E00002223D1F02091F601203240F021E030E0A1
:100E1000FC013383228380E090E015C08091F701CC
:100E2000E82FF0E0E850FE4F998190838F5F809328
:100E3000F7018093F60105C061E0CE0101960E94A2
:100E40002A0881E090E00F90DF91CF910895FC0196
:100E50001382128248EE53E060E070E044835583D1
:100E6000668377838AE291E091838083089510926C
:100E70001A02109219021092F7011092F6010C94C6
:100E80007507862F413208F040E26BE172E00E9464
:100E9000930710921A0280931902089521E00C948E
:100EA000410781E08093F501609318021092F701E9
:100EB0001092F60108950F93062F21E04091F6015C
:100EC00068EF71E0809118020E94D7071092F70135
:100ED0001092F6011092F5010F91089561E00C94C3
:100EE0005B0789EE91E00C9427071092A80281E03D
:100EF0008093A6021092A50261E082E10E94A909F6
:100F000061E083E10E94A909E9EBF0E080818E7F36
:100F1000808380818D7F808388E48093B80085E41E
:100F20008093BC000895413208F03FC09091A80220
:100F30009111FCCF91E09093A8022093A6022FEF8D
:100F400020933B0210928002240F20937F02909303
:100F5000A7029091A702880F892B8093A702809106
:100F6000A502813041F41092A5028091A7028093DE
:100F7000BB0085EC01C085EE8093BC008091A80287
:100F80008130E1F380918002841710F44091800257
:100F900021E832E0FB01D9018A2F821B841718F463
:100FA0008D918193F9CF842F089580E008950F9358
:100FB000413208F046C09091A8029111FCCF92E016
:100FC0009093A8020093A6029FEF90933B02109289
:100FD000800240937F02FB0161E872E0DB019A2FFF
:100FE000961B941718F491919D93F9CF1092A70234
:100FF0009091A702880F892B8093A7028091A50268
:10100000813041F41092A5028091A7028093BB0029
:1010100085EC01C085EE8093BC00222321F08091F5
:10102000A8028230E1F380913B028F3F61F0809112
:101030003B02803251F080913B02803341F483E0E7
:1010400007C081E005C080E003C082E001C084E009
:101050000F910895613298F42091A802243089F408
:1010600060935D02FC018FE592E0DC012A2F281BD2
:10107000261718F421912D93F9CF80E0089581E08F
:10108000089582E0089585ED8093BC008091BC00B6
:1010900084FDFCCF1092A802089585EC8093BC00DB
:1010A0001092A80208951F920F920FB60F9211246A
:1010B0002F933F934F935F936F937F938F939F9360
:1010C000AF93BF93EF93FF938091B900887F8036F1
:1010D00009F49CC068F5883209F45BC090F4803153
:1010E00009F454C038F4882309F4F5C0883009F4B1
:1010F0004DC0F5C0883109F44CC0803209F45DC0A0
:10110000EEC0803409F468C048F4803309F455C057
:10111000883309F0E4C080933B02A8C0803509F40D
:101120004FC0883509F45DC0883409F0D8C0D5C0F7
:10113000883909F4C6C0A8F4883709F467C038F4C0
:10114000883609F463C0803709F460C0C8C08838A5
:1011500009F4B7C0803909F45FC0803809F0BFC016
:101160005BC0803B09F485C038F4803A09F466C05E
:10117000883A09F47EC0B3C0803C09F4A6C0883C1C
:1011800009F4A3C0883B09F489C0A9C08091A702D3
:1011900010C09091800280917F02981770F5E091C5
:1011A000800281E08E0F80938002F0E0EF57FD4FC8
:1011B00080818093BB0085EC85C080933B028DC00D
:1011C000E091800281E08E0F809380028091BB00CD
:1011D000F0E0EF57FD4F80839091800280917F0275
:1011E0006DC0E091800281E08E0F8093800280913B
:1011F000BB00F0E0EF57FD4F80838091A602811184
:101200006CC081E08093A50284EA60C083E0809393
:10121000A80210923C02CFCF80913C02803208F0AD
:1012200050C0E0913C0281E08E0F80933C0280919F
:10123000BB00F0E0E35CFD4F8083BDCF80913C02BA
:10124000803230F4E0913C02F0E0E35CFD4F10822C
:101250000E94430860913C0270E0E091A102F0918D
:10126000A2028DE392E0099510923C020E944D0883
:1012700036C084E08093A80210925E0210925D0254
:10128000E091A302F091A402099580915D02811181
:1012900005C081E080935D0210925F02E0915E02E2
:1012A00081E08E0F80935E02F0E0E15AFD4F808175
:1012B0008093BB0090915E0280915D02981708F4C4
:1012C0007ACF85E88093BC000AC085EC8093BC008F
:1012D0001092A80204C010923B020E944308FF91A2
:1012E000EF91BF91AF919F918F917F916F915F919E
:1012F0004F913F912F910F900FBE0F901F90189517
:10130000833081F028F4813099F08230A1F0089583
:101310008630A9F08730B9F08430D1F48091800014
:101320008F7D03C0809180008F7780938000089527
:1013300084B58F7702C084B58F7D84BD0895809178
:10134000B0008F7703C08091B0008F7D8093B00094
:1013500008950F931F93CF93DF931F92CDB7DEB7FE
:10136000282F30E0F901E859FF4F8491F901E45842
:10137000FF4F1491F901E057FF4F04910023C9F08A
:10138000882321F069830E9480096981E02FF0E0C1
:10139000EE0FFF1FEC55FF4FA591B4919FB7F89446
:1013A0008C91611103C01095812301C0812B8C9316
:1013B0009FBF0F90DF91CF911F910F910895F894E7
:1013C0000C94290C5058BB27AA270ED075C166D1A2
:1013D00030F06BD120F031F49F3F11F41EF45BC16B
:1013E0000EF4E095E7FB51C1E92F77D180F3BA17EE
:1013F000620773078407950718F071F49EF58FC193
:101400000EF4E0950B2EBA2FA02D0B01B90190011F
:101410000C01CA01A0011124FF27591B99F0593F63
:1014200050F4503E68F11A16F040A22F232F342FAB
:101430004427585FF3CF469537952795A795F040F9
:101440005395C9F77EF41F16BA0B620B730B840B0E
:10145000BAF09150A1F0FF0FBB1F661F771F881FC6
:10146000C2F70EC0BA0F621F731F841F48F487951E
:1014700077956795B795F7959E3F08F0B3CF93950D
:10148000880F08F09927EE0F979587950895D9D082
:1014900008F481E008950CD00FC107D140F0FED0D0
:1014A00030F021F45F3F19F0F0C0511139C1F3C0A1
:1014B00014D198F39923C9F35523B1F3951B550B18
:1014C000BB27AA2762177307840738F09F5F5F4F17
:1014D000220F331F441FAA1FA9F333D00E2E3AF058
:1014E000E0E830D091505040E695001CCAF729D072
:1014F000FE2F27D0660F771F881FBB1F26173707C1
:101500004807AB07B0E809F0BB0B802DBF01FF27F0
:1015100093585F4F2AF09E3F510568F0B6C000C156
:101520005F3FECF3983EDCF3869577956795B7952A
:10153000F7959F5FC9F7880F911D9695879597F945
:101540000895E1E0660F771F881FBB1F62177307BE
:101550008407BA0720F0621B730B840BBA0BEE1FD3
:1015600088F7E095089504D06894B111D9C0089522
:10157000BCD088F09F5790F0B92F9927B751A0F0B1
:10158000D1F0660F771F881F991F1AF0BA95C9F717
:1015900012C0B13081F0C3D0B1E00895C0C0672F50
:1015A000782F8827B85F39F0B93FCCF386957795C7
:1015B0006795B395D9F73EF49095809570956195B0
:1015C0007F4F8F4F9F4F0895E89409C097FB3EF4DB
:1015D00090958095709561957F4F8F4F9F4F992380
:1015E000A9F0F92F96E9BB279395F69587957795FE
:1015F0006795B795F111F8CFFAF4BB0F11F460FFBE
:101600001BC06F5F7F4F8F4F9F4F16C0882311F015
:1016100096E911C0772321F09EE8872F762F05C029
:10162000662371F096E8862F70E060E02AF09A95C4
:10163000660F771F881FDAF7880F9695879597F9B9
:101640000895990F0008550FAA0BE0E8FEEF161653
:101650001706E807F907C0F012161306E407F507A6
:1016600098F0621B730B840B950B39F40A2661F01A
:10167000232B242B252B21F408950A2609F4A140BD
:10168000A6958FEF811D811D089597F99F6780E8CA
:1016900070E060E008959FEF80EC089500240A94C4
:1016A0001616170618060906089500240A9412163D
:1016B0001306140605060895092E0394000C11F470
:1016C000882352F0BB0F40F4BF2B11F460FF04C01D
:1016D0006F5F7F4F8F4F9F4F089557FD9058440F76
:1016E000551F59F05F3F71F04795880F97FB991F81
:1016F00061F09F3F79F0879508951216130614063E
:10170000551FF2CF4695F1DF08C0161617061806CA
:10171000991FF1CF86957105610508940895E894A5
:10172000BB2766277727CB0197F908958ADF08F44E
:101730008FEF08950BD0C0CFB1DF28F0B6DF18F0DF
:10174000952309F0A2CFA7CF1124EACFC6DFA0F3DB
:10175000959FD1F3950F50E0551F629FF001729F46
:10176000BB27F00DB11D639FAA27F00DB11DAA1F65
:10177000649F6627B00DA11D661F829F2227B00DB2
:10178000A11D621F739FB00DA11D621F839FA00D3D
:10179000611D221F749F3327A00D611D231F849F8D
:1017A000600D211D822F762F6A2F11249F575040E4
:1017B0008AF0E1F088234AF0EE0FFF1FBB1F661F7F
:1017C000771F881F91505040A9F79E3F510570F038
:1017D0005CCFA6CF5F3FECF3983EDCF38695779520
:1017E0006795B795F795E7959F5FC1F7FE2B880F33
:1017F000911D9695879597F9089523DF880B990B8E
:101800000895A1E21A2EAA1BBB1BFD010DC0AA1F41
:10181000BB1FEE1FFF1FA217B307E407F50720F059
:10182000A21BB30BE40BF50B661F771F881F991FD4
:101830001A9469F760957095809590959B01AC011D
:10184000BD01CF010895EE0FFF1F0590F491E02D2B
:061850000994F894FFCF9B
:101856000000A9022000090000000000D5026A0469
:101866007B02A8028D02CA026E616E00696E660076
:101876006F7666002E0000000000F806CB06A00674
:06188600A806BB06CA061D
:00000001FF
