:100000000C9459000C9481000C9481000C94810094
:100010000C9481000C9481000C9481000C9481005C
:100020000C9481000C9481000C9481000C9481004C
:100030000C9481000C9481000C9481000C9481003C
:100040000C9480010C9481000C94E6020C9429031A
:100050000C9481000C9481000C9481000C9481001C
:100060000C9451070C94810000000007000201006D
:100070000003040600000000000000000102040864
:100080001020408001020408102001020408102002
:10009000040404040404040402020202020203032E
:1000A0000303030300000000250028002B00E503E4
:1000B0006F0611241FBECFEFD8E0DEBFCDBF11E029
:1000C000A0E0B1E0E4E1F2E102C005900D92A03CB5
:1000D000B107D9F713E0A0ECB1E001C01D92A33342
:1000E000B107E1F710E0C2EBD0E004C02297FE01B7
:1000F0000E940409CE3AD107C9F70E948F050C94DB
:10010000DD080C940000CF93DF93D82FC62F6AE64A
:1001100070E083E792E00E9457066D2F83E792E03C
:100120000E94F4056C2F83E792E00E94F40583E7B8
:1001300092E0DF91CF910C946C06CF93C82F6AE6C2
:1001400070E083E792E00E94570666E071E089EC78
:1001500091E00E9496046C2F83E792E00E94F405E0
:10016000C82F67E171E089EC91E00E9479044AE0D0
:1001700050E06C2F89EC91E00E94780583E792E0D3
:100180000E946C06C82F6EE271E089EC91E00E943B
:1001900079044AE050E06C2F89EC91E00E947805E8
:1001A00061E471E089EC91E00E94960441E050E046
:1001B0006AE670E083E792E00E944A0683E792E0F5
:1001C000CF910C94A405CF93DF9383E792E00E9434
:1001D000330666E071E089EC91E00E94960440E805
:1001E00055E260E070E089EC91E00E94640360E514
:1001F00071E089EC91E00E9496048FE00E949D00DE
:10020000EC0164E671E089EC91E00E9479044AE037
:1002100050E0BE0189EC91E00E9453056FE080E25E
:10022000DF91CF910C948300EF92FF920F931F9375
:10023000CF93DF9388E20E949D007C0189E20E94B7
:100240009D00382F20E0E22AF32A69E671E089EC6C
:1002500091E00E9496048AE20E949D008C018BE24C
:100260000E949D00382F20E0022B132B67E771E0DE
:1002700089EC91E00E9496048CE20E949D00EC01C2
:100280008DE20E949D00382F20E0C22BD32B65E821
:1002900071E089EC91E00E94960463E971E089ECD9
:1002A00091E00E9479044AE050E0B70189EC91E0C6
:1002B0000E944B0566E971E089EC91E00E947904A7
:1002C0004AE050E0B80189EC91E00E944B056BE9EF
:1002D00071E089EC91E00E9479044AE050E0BE01AF
:1002E00089EC91E00E9453056CE271E080E090E0BF
:1002F000DF91CF911F910F91FF90EF900C94ED0142
:100300001F920F920FB60F9211242F933F938F934A
:100310009F93AF93BF938091C1019091C201A0912F
:10032000C301B091C4013091C00123E0230F2D37E8
:1003300020F40196A11DB11D05C026E8230F0296E9
:10034000A11DB11D2093C0018093C1019093C201F2
:10035000A093C301B093C4018091C5019091C601DF
:10036000A091C701B091C8010196A11DB11D809354
:10037000C5019093C601A093C701B093C801BF9176
:10038000AF919F918F913F912F910F900FBE0F9042
:100390001F9018953FB7F8948091C5019091C601C0
:1003A000A091C701B091C80126B5A89B05C02F3FF9
:1003B00019F00196A11DB11D3FBF6627782F892F27
:1003C0009A2F620F711D811D911D42E0660F771FEC
:1003D000881F991F4A95D1F70895CF92DF92EF9227
:1003E000FF92CF93DF936B017C010E94CA01EB0166
:1003F000C114D104E104F10479F00E94CA016C1B1C
:100400007D0B683E7340A0F381E0C81AD108E10873
:10041000F108C851DC4FECCFDF91CF91FF90EF9006
:10042000DF90CF900895789484B5826084BD84B5C0
:10043000816084BD85B5826085BD85B5816085BDDF
:10044000EEE6F0E0808181608083E1E8F0E01082F8
:10045000808182608083808181608083E0E8F0E039
:10046000808181608083E1EBF0E080818460808323
:10047000E0EBF0E0808181608083EAE7F0E080815A
:1004800084608083808182608083808181608083BA
:100490008081806880831092C1000895FC012485CA
:1004A0003585F901E05CFF4F80819181F901EE5BB8
:1004B000FF4F20813181821B930B8F739927089501
:1004C000FC0184859585FC01E05CFF4F40815181F2
:1004D000FC01EE5BFF4F208131814217530741F051
:1004E0000190F081E02DE80FF91F808190E00895E0
:1004F0008FEF9FEF0895FC0184859585FC01E05CFA
:10050000FF4F40815181FC01EE5BFF4F2081318123
:100510004217530779F0A081B181A80FB91F8C91C0
:10052000208131812F5F3F4F2F7333273183208309
:1005300090E008958FEF9FEF0895FC0181A188233B
:1005400029F0A489B5898C9186FFFBCF11A208956B
:10055000CF93DF93FC0126853785D901A05CBF4F7F
:100560008D919C91119701968F739927E901CE5B2C
:10057000DF4F4881598184179507D9F30D90BC91BD
:10058000A02DA20FB31F6C93A685B785A05CBF4FAB
:1005900011969C938E93A689B7892C9181E090E067
:1005A000078C02C0880F991F0A94E2F7282B2C931E
:1005B00081E081A30488F589E02D808180648083B7
:1005C00081E090E0DF91CF91089508951F920F92FE
:1005D0000FB60F9211242F933F934F938F939F93B6
:1005E000EF93FF938091C00082FD1CC04091C60034
:1005F00080916F029091700201968F7399272091DC
:100600007102309172028217930771F0E0916F02CC
:10061000F0917002E15DFD4F4083909370028093F2
:100620006F0202C08091C600FF91EF919F918F9160
:100630004F913F912F910F900FBE0F901F901895E3
:1006400089EC91E00E944E02892B11F00C94E50296
:1006500008951F920F920FB60F9211242F933F937C
:100660008F939F93EF93FF9320912B0230912C0255
:1006700080912D0290912E022817390731F4809134
:10068000C1008F7D8093C10014C0E0912D02F091D4
:100690002E02E551FE4F208180912D0290912E0275
:1006A00001968F73992790932E0280932D022093A9
:1006B000C600FF91EF919F918F913F912F910F90E5
:1006C0000FBE0F901F901895CF92DF92EF92FF927E
:1006D000CF93DF93EC016A017B01411581EE58074E
:1006E00061057105F9F0EC89FD8981E090E008A0D1
:1006F00002C0880F991F0A94E2F7808360E079E0D6
:100700008DE390E0A70196010E94E0082150310995
:10071000410951095695479537952795211580E14F
:10072000380798F0EC89FD89108260E874E88EE162
:1007300090E0A70196010E94E0082150310941098B
:1007400051095695479537952795E889F98930835A
:10075000EA89FB89208319A2EE89FF89408181E023
:1007600090E09C010C8C02C0220F331F0A94E2F728
:10077000422B4083EE89FF8940819C010D8C02C091
:10078000220F331F0A94E2F7422B4083EE89FF8940
:1007900040819C010E8C02C0220F331F0A94E2F7A5
:1007A000422B4083EE89FF8920810F8C02C0880F85
:1007B000991F0A94E2F7809582238083DF91CF917D
:1007C000FF90EF90DF90CF9008951092CC0110929F
:1007D000CB0188EE93E0A0E0B0E08093CD01909350
:1007E000CE01A093CF01B093D00184EA91E0909321
:1007F000CA018093C9018FE292E09093D601809361
:10080000D5018BEE91E09093D8018093D70185ECD0
:1008100090E09093DA018093D90184EC90E090937A
:10082000DC018093DB0180EC90E09093DE0180930B
:10083000DD0181EC90E09093E0018093DF0182EC98
:1008400090E09093E2018093E10186EC90E0909338
:10085000E4018093E30184E08093E50183E08093E9
:10086000E60187E08093E70185E08093E80181E07D
:100870008093E9010895CF92DF92EF92FF920F9358
:100880001F93CF93DF936C017A01EB01E60EF71E05
:1008900000E010E0CE15DF0561F06991D601ED9121
:1008A000FC910190F081E02DC6010995080F191FF8
:1008B000F1CFC801DF91CF911F910F91FF90EF9081
:1008C000DF90CF9008956115710581F0DB010D90E7
:1008D0000020E9F7AD0141505109461B570BDC01DF
:1008E000ED91FC910280F381E02D099480E090E08D
:1008F00008950C946304DC01ED91FC910190F0816A
:10090000E02D09940F931F93CF93DF93EC016DE0DB
:100910000E947B048C016AE0CE010E947B04800F60
:10092000911FDF91CF911F910F9108950F931F9306
:10093000CF93DF93EC010E9463048C01CE010E94EF
:100940008204800F911FDF91CF911F910F91089525
:100950008F929F92AF92BF92CF92DF92EF92FF92CF
:100960000F931F93CF93DF93CDB7DEB7A1970FB649
:10097000F894DEBF0FBECDBF7C01C42EE52FCB01A6
:10098000D22E19A221E02D1510F02AE0D22E8E01D0
:100990000F5D1F4F8D2C912CA12CB12C6C2D7E2F17
:1009A000A50194010E94E0088C2DD29E801911248B
:1009B000015011098A3014F4805D01C0895CF8018E
:1009C0008083211531054105510521F0C22EE32F09
:1009D000CA01E4CFB801C7010E946304A1960FB613
:1009E000F894DEBF0FBECDBFDF91CF911F910F9165
:1009F000FF90EF90DF90CF90BF90AF909F908F903F
:100A00000895CF92DF92EF92FF920F931F93CF93AF
:100A1000DF93EC016A017B012115310579F4E8814E
:100A2000F9810190F081E02D642FDF91CF911F912A
:100A30000F91FF90EF90DF90CF9009942A3031050D
:100A4000E9F477FF1AC06DE20E947B048C01442711
:100A50005527BA014C195D096E097F092AE0CE01BC
:100A60000E94A804800F911FDF91CF911F910F91D9
:100A7000FF90EF90DF90CF9008952AE0B701A60194
:100A8000CE01DF91CF911F910F91FF90EF90DF90FA
:100A9000CF900C94A8049A01AB01662757FD60958E
:100AA000762F0C9401050F931F93CF93DF93EC01E6
:100AB0009A01AB01662757FD6095762F0E940105CC
:100AC0008C01CE010E948204800F911FDF91CF9193
:100AD0001F910F9108952115310541F4DC01ED912D
:100AE000FC910190F081E02D642F09940C94A804EE
:100AF0000F931F93CF93DF93EC019A01462F50E0A1
:100B000060E070E00E946B058C01CE010E948204BF
:100B1000800F911FDF91CF911F910F9108950E9437
:100B200013020E94E300C0E2D3E00E941401209768
:100B3000E1F30E942003F9CF8091A30290E020917D
:100B4000A402821B910908952091A4028091A3021E
:100B5000281750F4E22FF0E0EB55FD4F808190E034
:100B60002F5F2093A40208958FEF9FEF0895E091E7
:100B7000A4028091A302E81730F4F0E0EB55FD4F9A
:100B8000808190E008958FEF9FEF08950895CF92B0
:100B9000DF92EF92FF920F931F93CF93DF937C012D
:100BA000CB018A0120917F02222389F0EB016B01A6
:100BB000C40ED51ECC15DD0569F06991D701ED9104
:100BC000FC910190F081E02DC7010995F3CF642FCE
:100BD0000E942807C801DF91CF911F910F91FF90CC
:100BE000EF90DF90CF900895CF93DF931F92CDB712
:100BF000DEB7698320917F022223D1F02091800209
:100C0000203240F021E030E0FC013383228380E099
:100C100090E015C080918102E82FF0E0EE57FD4F83
:100C2000998190838F5F809381028093800205C0B9
:100C300061E0CE0101960E94280781E090E00F90CC
:100C4000DF91CF910895FC011382128248EE53E0A8
:100C500060E070E0448355836683778384EB91E0A2
:100C60009183808308951092A4021092A30210929F
:100C70008102109280020C947306862F413208F094
:100C800040E265EA72E00E9491061092A40280930D
:100C9000A302089521E00C943D0681E080937F0239
:100CA0006093A202109281021092800208950C9427
:100CB0004D060F93062F21E04091800262E872E01A
:100CC0008091A2020E94D5061092810210928002A9
:100CD00010927F020F91089561E00C94590683E70A
:100CE00092E00C9423061092320381E0809330034B
:100CF00010922F0361E082E10E94A70861E083E186
:100D00000E94A708E9EBF0E080818E7F80838081DC
:100D10008D7F808388E48093B80085E48093BC0055
:100D20000895413208F03FC0909132039111FCCFF9
:100D300091E090933203209330032FEF2093C5026C
:100D400010920A03240F209309039093310390918A
:100D50003103880F892B8093310380912F038130D9
:100D600041F410922F03809131038093BB0085ECF6
:100D700001C085EE8093BC00809132038130E1F3A5
:100D800080910A03841710F440910A032BE033E0AA
:100D9000FB01D9018A2F821B841718F48D9181934E
:100DA000F9CF842F089580E008950F93413208F021
:100DB00046C0909132039111FCCF92E090933203A0
:100DC000009330039FEF9093C50210920A03409363
:100DD0000903FB016BE073E0DB019A2F961B94176C
:100DE00018F491919D93F9CF1092310390913103B2
:100DF000880F892B8093310380912F03813041F438
:100E000010922F03809131038093BB0085EC01C0C9
:100E100085EE8093BC00222321F080913203823042
:100E2000E1F38091C5028F3F61F08091C50280326D
:100E300051F08091C502803341F483E007C081E026
:100E400005C080E003C082E001C084E00F910895F6
:100E5000613298F420913203243089F46093E702E0
:100E6000FC0189EE92E0DC012A2F281B261718F4DA
:100E700021912D93F9CF80E0089581E0089582E0DB
:100E8000089585ED8093BC008091BC0084FDFCCF6B
:100E900010923203089585EC8093BC0010923203C7
:100EA00008951F920F920FB60F9211242F933F9324
:100EB0004F935F936F937F938F939F93AF93BF9362
:100EC000EF93FF938091B900887F803609F49CC02E
:100ED00068F5883209F45BC090F4803109F454C09D
:100EE00038F4882309F4F5C0883009F44DC0F5C002
:100EF000883109F44CC0803209F45DC0EEC0803402
:100F000009F468C048F4803309F455C0883309F007
:100F1000E4C08093C502A8C0803509F44FC088356D
:100F200009F45DC0883409F0D8C0D5C0883909F407
:100F3000C6C0A8F4883709F467C038F4883609F4C5
:100F400063C0803709F460C0C8C0883809F4B7C0EE
:100F5000803909F45FC0803809F0BFC05BC0803BB6
:100F600009F485C038F4803A09F466C0883A09F477
:100F70007EC0B3C0803C09F4A6C0883C09F4A3C07D
:100F8000883B09F489C0A9C08091310310C09091B9
:100F90000A0380910903981770F5E0910A0381E034
:100FA0008E0F80930A03F0E0E55FFC4F8081809311
:100FB000BB0085EC85C08093C5028DC0E0910A031B
:100FC00081E08E0F80930A038091BB00F0E0E55F23
:100FD000FC4F808390910A03809109036DC0E091DA
:100FE0000A0381E08E0F80930A038091BB00F0E03A
:100FF000E55FFC4F80838091300381116CC081E0FC
:1010000080932F0384EA60C083E0809332031092C0
:10101000C602CFCF8091C602803208F050C0E09166
:10102000C60281E08E0F8093C6028091BB00F0E083
:10103000E953FD4F8083BDCF8091C602803230F4EA
:10104000E091C602F0E0E953FD4F10820E94410793
:101050006091C60270E0E0912B03F0912C0387ECC5
:1010600092E009951092C6020E944B0736C084E0B8
:10107000809332031092E8021092E702E0912D0370
:10108000F0912E0309958091E702811105C081E05E
:101090008093E7021092E902E091E80281E08E0F6E
:1010A0008093E802F0E0E751FD4F80818093BB0020
:1010B0009091E8028091E702981708F47ACF85E8CA
:1010C0008093BC000AC085EC8093BC001092320370
:1010D00004C01092C5020E944107FF91EF91BF9199
:1010E000AF919F918F917F916F915F914F913F91C0
:1010F0002F910F900FBE0F901F901895833081F0A5
:1011000028F4813099F08230A1F008958630A9F05A
:101110008730B9F08430D1F4809180008F7D03C096
:10112000809180008F7780938000089584B58F77B9
:1011300002C084B58F7D84BD08958091B0008F7703
:1011400003C08091B0008F7D8093B00008950F930D
:101150001F93CF93DF931F92CDB7DEB7282F30E0D8
:10116000F901E859FF4F8491F901E458FF4F1491B8
:10117000F901E057FF4F04910023C9F0882321F0C3
:1011800069830E947E086981E02FF0E0EE0FFF1F67
:10119000EC55FF4FA591B4919FB7F8948C916111D4
:1011A00003C01095812301C0812B8C939FBF0F90AA
:1011B000DF91CF911F910F910895F8940C94080935
:1011C000A1E21A2EAA1BBB1BFD010DC0AA1FBB1F4B
:1011D000EE1FFF1FA217B307E407F50720F0A21BBD
:1011E000B30BE40BF50B661F771F881F991F1A942A
:1011F00069F760957095809590959B01AC01BD0154
:10120000CF010895EE0FFF1F0590F491E02D099492
:04121000F894FFCF80
:101214000000330320005B64656275675D493243F7
:10122400205374617274005B64656275675D7772E4
:1012340069746520726573756C74203A20005B6470
:10124400656275675D49324320726573756C743AE3
:10125400005B64656275675D49324320456E6400D6
:101264005B64656275675D53657269616C20537474
:10127400617274007265673A005B64656275675DEC
:10128400526561642058005B64656275675D5265F0
:1012940061642059005B64656275675D52656164D1
:1012A400205A00783A002C20793A002C207A3A000F
:1012B40000000000A8023B044E027B0260029D0273
:1012C40000000000F405C7059C05A405B705C60584
:00000001FF
