:100000000C9464000C948C000C948C000C948C0068
:100010000C948C000C948C000C948C000C948C0030
:100020000C948C000C948C000C948C000C948C0020
:100030000C948C000C948C000C948C000C948C0010
:100040000C9403010C948C000C9469020C94AC0287
:100050000C948C000C948C000C948C000C948C00F0
:100060000C94B2090C948C000000000700020100FF
:100070000003040600000000000000000102040864
:100080001020408001020408102001020408102002
:10009000040404040404040402020202020203032E
:1000A00003030303000000002300260029000000D2
:1000B0000000250028002B0000000000240027007D
:1000C0002A00FF006803D00811241FBECFEFD8E03C
:1000D000DEBFCDBF11E0A0E0B1E0ECE5F8E102C089
:1000E00005900D92AA34B107D9F712E0AAE4B1E065
:1000F00001C01D92A03DB107E1F710E0C8ECD0E0CF
:1001000004C02297FE010E94280CC23CD107C9F707
:100110000E94EE040C94DF0A0C94000040E855E2C3
:1001200060E070E086E691E00E94E7024AE660E067
:1001300070E08AE491E00E94ED06811107C066E05C
:1001400071E086E691E00E941904FFCF08958AE4E9
:1001500091E00E9448056BE171E086E691E00E9423
:10016000FC0360914A0170914B0180914C01909188
:100170004D010E94E20A4AE050E086E691E00E94CA
:10018000CE046FE171E086E691E00E94FC0362E23A
:1001900071E086E691E00E94FC0360914E0170914F
:1001A0004F0180915001909151010E94E20A4AE072
:1001B00050E086E691E00E94CE046FE171E086E6B1
:1001C00091E00E94FC0366E271E086E691E00E9405
:1001D000FC03609152017091530180915401909100
:1001E00055010E94E20A4AE050E086E691E00E9452
:1001F000D6046CE271E080E090E00C9470018AE437
:1002000091E00C94FB041F920F920FB60F921124F1
:100210002F933F938F939F93AF93BF9380915E01F2
:1002200090915F01A0916001B091610130915D01F9
:1002300023E0230F2D3720F40196A11DB11D05C029
:1002400026E8230F0296A11DB11D20935D01809326
:100250005E0190935F01A0936001B0936101809172
:10026000620190916301A0916401B09165010196D2
:10027000A11DB11D8093620190936301A09364015D
:10028000B0936501BF91AF919F918F913F912F9155
:100290000F900FBE0F901F9018953FB7F894809164
:1002A000620190916301A0916401B091650126B54E
:1002B000A89B05C02F3F19F00196A11DB11D3FBF9E
:1002C0006627782F892F9A2F620F711D811D911D2E
:1002D00042E0660F771F881F991F4A95D1F708954E
:1002E000CF92DF92EF92FF92CF93DF936B017C016D
:1002F0000E944D01EB01C114D104E104F10479F035
:100300000E944D016C1B7D0B683E7340A0F381E0A1
:10031000C81AD108E108F108C851DC4FECCFDF91D1
:10032000CF91FF90EF90DF90CF900895789484B5AF
:10033000826084BD84B5816084BD85B5826085BDE1
:1003400085B5816085BDEEE6F0E0808181608083C7
:10035000E1E8F0E0108280818260808380818160AA
:100360008083E0E8F0E0808181608083E1EBF0E071
:10037000808184608083E0EBF0E080818160808315
:10038000EAE7F0E0808184608083808182608083FE
:100390008081816080838081806880831092C10029
:1003A0000895FC0124853585F901E05CFF4F8081CB
:1003B0009181F901EE5BFF4F20813181821B930B0C
:1003C0008F7399270895FC0184859585FC01E05C75
:1003D000FF4F40815181FC01EE5BFF4F2081318155
:1003E0004217530741F00190F081E02DE80FF91F0B
:1003F000808190E008958FEF9FEF0895FC01848540
:100400009585FC01E05CFF4F40815181FC01EE5B72
:10041000FF4F208131814217530779F0A081B181CC
:10042000A80FB91F8C91208131812F5F3F4F2F730F
:1004300033273183208390E008958FEF9FEF089555
:10044000FC0181A1882329F0A489B5898C9186FFBC
:10045000FBCF11A20895CF93DF93FC01268537854A
:10046000D901A05CBF4F8D919C91119701968F731C
:100470009927E901CE5BDF4F4881598184179507A1
:10048000D9F30D90BC91A02DA20FB31F6C93A6853C
:10049000B785A05CBF4F11969C938E93A689B789B0
:1004A0002C9181E090E0078C02C0880F991F0A947C
:1004B000E2F7282B2C9381E081A30488F589E02DB5
:1004C00080818064808381E090E0DF91CF91089506
:1004D00008951F920F920FB60F9211242F933F93FE
:1004E0004F938F939F93EF93FF938091C00082FD72
:1004F0001CC04091C60080910C0290910D020196A3
:100500008F73992720910E0230910F028217930763
:1005100071F0E0910C02F0910D02E453FE4F408324
:1005200090930D0280930C0202C08091C600FF914F
:10053000EF919F918F914F913F912F910F900FBE0F
:100540000F901F90189586E691E00E94D101892BAB
:1005500011F00C94680208951F920F920FB60F923B
:1005600011242F933F938F939F93EF93FF932091A9
:10057000C8013091C9018091CA019091CB0128171F
:10058000390731F48091C1008F7D8093C10014C080
:10059000E091CA01F091CB01E857FE4F2081809194
:1005A000CA019091CB0101968F7399279093CB014B
:1005B0008093CA012093C600FF91EF919F918F9184
:1005C0003F912F910F900FBE0F901F901895CF92D3
:1005D000DF92EF92FF92CF93DF93EC016A017B01F0
:1005E000411581EE580761057105F9F0EC89FD8927
:1005F00081E090E008A002C0880F991F0A94E2F7FA
:10060000808360E079E08DE390E0A70196010E948D
:10061000040C2150310941095109569547953795E8
:100620002795211580E1380798F0EC89FD89108223
:1006300060E874E88EE190E0A70196010E94040C46
:10064000215031094109510956954795379527950C
:10065000E889F9893083EA89FB89208319A2EE8928
:10066000FF89408181E090E09C010C8C02C0220F48
:10067000331F0A94E2F7422B4083EE89FF894081C1
:100680009C010D8C02C0220F331F0A94E2F7422B0B
:100690004083EE89FF8940819C010E8C02C0220FAD
:1006A000331F0A94E2F7422B4083EE89FF892081B1
:1006B0000F8C02C0880F991F0A94E2F7809582235D
:1006C0008083DF91CF91FF90EF90DF90CF900895DE
:1006D000109269011092680188EE93E0A0E0B0E00A
:1006E00080936A0190936B01A0936C01B0936D01AC
:1006F0008EE291E090936701809366018CEC91E02B
:10070000909373018093720188E891E09093750152
:100710008093740185EC90E090937701809376014B
:1007200084EC90E0909379018093780180EC90E0E4
:1007300090937B0180937A0181EC90E090937D010E
:1007400080937C0182EC90E090937F0180937E0106
:1007500086EC90E0909381018093800184E0809307
:10076000820183E08093830187E08093840185E0A8
:100770008093850181E0809386010895CF92DF9276
:10078000EF92FF920F931F93CF93DF936C017A0147
:10079000EB01E60EF71E00E010E0CE15DF0561F07C
:1007A0006991D601ED91FC910190F081E02DC60197
:1007B0000995080F191FF1CFC801DF91CF911F9143
:1007C0000F91FF90EF90DF90CF9008956115710524
:1007D00081F0DB010D900020E9F7AD014150510996
:1007E000461B570BDC01ED91FC910280F381E02D5B
:1007F000099480E090E008950C94E603DC01ED910B
:10080000FC910190F081E02D09940F931F93CF93F9
:10081000DF93EC016DE00E94FE038C016AE0CE01E3
:100820000E94FE03800F911FDF91CF911F910F91C6
:1008300008950F931F93CF93DF93EC010E94E6037B
:100840008C01CE010E940504800F911FDF91CF9192
:100850001F910F9108958F929F92AF92BF92CF9266
:10086000DF92EF92FF920F931F93CF93DF93CDB759
:10087000DEB7A1970FB6F894DEBF0FBECDBF7C01E7
:10088000C42EE52FCB01D22E19A221E02D1510F098
:100890002AE0D22E8E010F5D1F4F8D2C912CA12CA2
:1008A000B12C6C2D7E2FA50194010E94040C8C2D7F
:1008B000D29E80191124015011098A3014F4805DF0
:1008C00001C0895CF801808321153105410551057E
:1008D00021F0C22EE32FCA01E4CFB801C7010E9464
:1008E000E603A1960FB6F894DEBF0FBECDBFDF9131
:1008F000CF911F910F91FF90EF90DF90CF90BF901D
:10090000AF909F908F900895CF92DF92EF92FF92D9
:100910000F931F93CF93DF93EC016A017B012115A5
:10092000310579F4E881F9810190F081E02D642F9F
:10093000DF91CF911F910F91FF90EF90DF90CF90BB
:1009400009942A303105E9F477FF1AC06DE20E945C
:10095000FE038C0144275527BA014C195D096E0925
:100960007F092AE0CE010E942B04800F911FDF91A6
:10097000CF911F910F91FF90EF90DF90CF9008954E
:100980002AE0B701A601CE01DF91CF911F910F910F
:10099000FF90EF90DF90CF900C942B049A01AB0165
:1009A000662757FD6095762F0C9484040F931F9350
:1009B000CF93DF93EC019A01AB01662757FD609559
:1009C000762F0E9484048C01CE010E940504800FC2
:1009D000911FDF91CF911F910F9108950E94960171
:1009E0000E948E00C3EAD2E00E94A7002097E1F3A4
:1009F0000E94A302F9CFFC018FEF818B8787808B48
:100A0000828B0895BF92CF92DF92EF92FF920F9365
:100A10001F93CF93DF938C01C7E0D0E0B12CE62E7B
:100A2000F12CCC24C394D12C60E0F80181890E9480
:100A3000A00797010C2E02C0359527950A94E2F77E
:100A400020FF02C061E001C060E0F80180890E94DF
:100A5000A00761E0F80181890E94A007F80187855D
:100A60000E94D607892B39F096010C2E01C0220F67
:100A70000A94EAF7B22A2197B8F68B2DDF91CF912D
:100A80001F910F91FF90EF90DF90CF90BF9008954E
:100A90004F925F926F927F928F929F92AF92BF928E
:100AA000CF92DF92EF92FF92CF93DF93EC018A898E
:100AB0008F3F09F03FC06C8580E192E00E94B00852
:100AC000E0911002F09111020190F081E02D68EAAE
:100AD00080E192E0099580E192E00E94CD0846E035
:100AE0006C8580E192E00E94AD0880E192E00E9476
:100AF000FF070697D4F380E192E00E940708A82E32
:100B000080E192E00E940708B82E80E192E00E9406
:100B10000708C82E80E192E00E940708D82E80E1E5
:100B200092E00E940708E82E80E192E00E94070808
:100B3000F82E34C061E089890E94A00760E08A89AC
:100B40000E94A00768EECE010E94020564E170E0F9
:100B500080E090E00E9470016FEFCE010E940205DC
:100B6000A82E6FEFCE010E940205B82E6FEFCE01C6
:100B70000E940205C82E6FEFCE010E940205D82EFA
:100B80006FEFCE010E940205E82E6FEFCE010E94AA
:100B90000205F82E61E08A890E94A0076A2D70E0A4
:100BA0007B29882777FD8095982F0E94150B2B01B4
:100BB0003C01688379838A839B836C2D70E07D2957
:100BC000882777FD8095982F0E94150B4B015C01BB
:100BD0006C837D838E839F836E2D70E07F298827B1
:100BE00077FD8095982F0E94150B6B017C0168871B
:100BF00079878A879B878D859E858130910519F13C
:100C000082309105E9F1892B09F05EC029E23CE5CB
:100C10004FE05CE3C301B2010E94A10B68837983BA
:100C20008A839B8329E23CE54FE05CE3C501B40184
:100C30000E94A10B6C837D838E839F8329E23CE518
:100C40004FE05CE339C029E23CE54FE85CE3C301D7
:100C5000B2010E94A10B688379838A839B8329E276
:100C60003CE54FE85CE3C501B4010E94A10B6C8335
:100C70007D838E839F8329E23CE54FE85CE31CC0C3
:100C800029E23CE54FE85DE3C301B2010E94A10BFC
:100C9000688379838A839B8329E23CE54FE85DE39F
:100CA000C501B4010E94A10B6C837D838E839F8359
:100CB00029E23CE54FE85DE3C701B6010E94A10BC4
:100CC000688779878A879B87DF91CF91FF90EF9024
:100CD000DF90CF90BF90AF909F908F907F906F905C
:100CE0005F904F9008950F931F93CF93DF93EC0184
:100CF000162F042F8A898F3FB9F46C8580E192E02A
:100D00000E94B008612F80E192E00E945708602F96
:100D100080E192E00E94570880E192E0DF91CF915C
:100D20001F910F910C94CD0861E089890E94A00762
:100D300060E08A890E94A007612FCE010E9402050F
:100D4000602FCE010E94020561E08A89DF91CF9178
:100D50001F910F910C94A0071F93CF93DF93EC0189
:100D6000162F8A898F3FF1F46C8580E192E00E9412
:100D7000B008612F80E192E00E94570880E192E084
:100D80000E94CD0841E06C8580E192E00E94AD08B0
:100D900080E192E00E940708182F80E192E00E9413
:100DA000CD0816C061E089890E94A00760E08A89A9
:100DB0000E94A007612F6068CE010E9402056FEFBC
:100DC000CE010E940205182F61E08A890E94A007C7
:100DD000812FDF91CF911F910895FF920F931F9361
:100DE000CF93DF93EC018B01F42E8A898F3F29F496
:100DF00080E192E00E94960813C061E00E946707BC
:100E000061E089890E94670761E088890E9467071D
:100E100060E08F850E94670761E08A890E94A007D1
:100E2000FC861E870D876FE070E0CE010E94AC0645
:100E3000843DD9F44FE060E270E0CE010E94730679
:100E40008D859E858130910539F08230910531F094
:100E5000892B69F440E003C040E101C040E263E255
:100E600070E0CE010E94730602C080E001C081E004
:100E7000DF91CF911F910F91FF900895833081F002
:100E800028F4813099F08230A1F008958630A9F0DD
:100E90008730B9F08430D1F4809180008F7D03C019
:100EA000809180008F7780938000089584B58F773C
:100EB00002C084B58F7D84BD08958091B0008F7786
:100EC00003C08091B0008F7D8093B0000895CF93D0
:100ED000DF9390E0FC01E458FF4F2491FC01E057C0
:100EE000FF4F8491882349F190E0880F991FFC01FE
:100EF000E854FF4FA591B49182559F4FFC01C591D5
:100F0000D4919FB7611108C0F8948C9120958223E9
:100F10008C93888182230AC0623051F4F8948C91BA
:100F2000322F309583238C938881822B888304C051
:100F3000F8948C91822B8C939FBFDF91CF91089571
:100F40000F931F93CF93DF931F92CDB7DEB7282F58
:100F500030E0F901E859FF4F8491F901E458FF4F5F
:100F60001491F901E057FF4F04910023C9F0882341
:100F700021F069830E943E076981E02FF0E0EE0FC7
:100F8000FF1FE255FF4FA591B4919FB7F8948C9144
:100F9000611103C01095812301C0812B8C939FBFE9
:100FA0000F90DF91CF911F910F910895CF93DF9311
:100FB000282F30E0F901E859FF4F8491F901E458F6
:100FC000FF4FD491F901E057FF4FC491CC2391F02A
:100FD00081110E943E07EC2FF0E0EE0FFF1FEC5551
:100FE000FF4FA591B4912C912D2381E090E021F445
:100FF00080E002C080E090E0DF91CF910895809181
:10100000400290E020914102821B910908952091B5
:10101000410280914002281750F4E22FF0E0EE5B8D
:10102000FD4F808190E02F5F2093410208958FEF64
:101030009FEF0895E091410280914002E81730F45B
:10104000F0E0EE5BFD4F808190E008958FEF9FEF21
:1010500008950895CF92DF92EF92FF920F931F931E
:10106000CF93DF937C01CB018A0120911C022223C4
:1010700089F0EB016B01C40ED51ECC15DD0569F0BE
:101080006991D701ED91FC910190F081E02DC701AC
:101090000995F3CF642F0E948909C801DF91CF9190
:1010A0001F910F91FF90EF90DF90CF900895CF9315
:1010B000DF931F92CDB7DEB7698320911C022223F4
:1010C000D1F020911D02203240F021E030E0FC01FF
:1010D0003383228380E090E015C080911E02E82FC8
:1010E000F0E0E15EFD4F998190838F5F80931E0257
:1010F00080931D0205C061E0CE0101960E9489091E
:1011000081E090E00F90DF91CF910895FC01138270
:10111000128248EE53E060E070E0448355836683BA
:1011200077838EE391E0918380830895109241024A
:101130001092400210921E0210921D020C94D408CC
:10114000862F413208F040E262E472E00E94F20829
:101150001092410280934002089521E00C94A0086F
:1011600081E080931C0260933F0210921E02109255
:101170001D0208950F93062F21E040911D026FE19B
:1011800072E080913F020E94360910921E02109276
:101190001D0210921C020F91089561E00C94BA0890
:1011A00080E192E00C9486081092CF0281E0809357
:1011B000CD021092CC0261E082E10E94A00761E0C2
:1011C00083E10E94A007E9EBF0E080818E7F8083BD
:1011D00080818D7F808388E48093B80085E480934C
:1011E000BC000895413208F03FC09091CF029111A8
:1011F000FCCF91E09093CF022093CD022FEF20936C
:1012000062021092A702240F2093A6029093CE02AE
:101210009091CE02880F892B8093CE028091CC02D0
:10122000813041F41092CC028091CE028093BB00B9
:1012300085EC01C085EE8093BC008091CF028130A7
:10124000E1F38091A702841710F44091A70228EAE5
:1012500032E0FB01D9018A2F821B841718F48D918B
:101260008193F9CF842F089580E008950F93413240
:1012700008F046C09091CF029111FCCF92E090937C
:10128000CF020093CD029FEF909362021092A702CB
:101290004093A602FB0168EA72E0DB019A2F961BDD
:1012A000941718F491919D93F9CF1092CE029091DA
:1012B000CE02880F892B8093CE028091CC028130A0
:1012C00041F41092CC028091CE028093BB0085EC59
:1012D00001C085EE8093BC00222321F08091CF02D3
:1012E0008230E1F3809162028F3F61F0809162026F
:1012F000803251F080916202803341F483E007C074
:1013000081E005C080E003C082E001C084E00F916D
:101310000895613298F42091CF02243089F46093CB
:101320008402FC0186E892E0DC012A2F281B2617A4
:1013300018F421912D93F9CF80E0089581E008956C
:1013400082E0089585ED8093BC008091BC0084FD0F
:10135000FCCF1092CF02089585EC8093BC001092D0
:10136000CF0208951F920F920FB60F9211242F9360
:101370003F934F935F936F937F938F939F93AF931D
:10138000BF93EF93FF938091B900887F803609F473
:101390009CC068F5883209F45BC090F4803109F490
:1013A00054C038F4882309F4F5C0883009F44DC0DE
:1013B000F5C0883109F44CC0803209F45DC0EEC03C
:1013C000803409F468C048F4803309F455C0883388
:1013D00009F0E4C080936202A8C0803509F44FC0D0
:1013E000883509F45DC0883409F0D8C0D5C0883983
:1013F00009F4C6C0A8F4883709F467C038F4883601
:1014000009F463C0803709F460C0C8C0883809F4A3
:10141000B7C0803909F45FC0803809F0BFC05BC035
:10142000803B09F485C038F4803A09F466C0883AF4
:1014300009F47EC0B3C0803C09F4A6C0883C09F41E
:10144000A3C0883B09F489C0A9C08091CE0210C016
:101450009091A7028091A602981770F5E091A702DB
:1014600081E08E0F8093A702F0E0E855FD4F808168
:101470008093BB0085EC85C0809362028DC0E091B3
:10148000A70281E08E0F8093A7028091BB00F0E05D
:10149000E855FD4F80839091A7028091A6026DC010
:1014A000E091A70281E08E0F8093A7028091BB009C
:1014B000F0E0E855FD4F80838091CD0281116CC032
:1014C00081E08093CC0284EA60C083E08093CF0205
:1014D00010926302CFCF80916302803208F050C037
:1014E000E091630281E08E0F809363028091BB00E4
:1014F000F0E0EC59FD4F8083BDCF809163028032D4
:1015000030F4E0916302F0E0EC59FD4F10820E944C
:10151000A2096091630270E0E091C802F091C902F3
:1015200084E692E00995109263020E94AC0936C0ED
:1015300084E08093CF021092850210928402E091A1
:10154000CA02F091CB02099580918402811105C0F5
:1015500081E08093840210928602E091850281E00E
:101560008E0F80938502F0E0EA57FD4F80818093D3
:10157000BB009091850280918402981708F47ACF7D
:1015800085E88093BC000AC085EC8093BC00109273
:10159000CF0204C0109262020E94A209FF91EF9153
:1015A000BF91AF919F918F917F916F915F914F917B
:1015B0003F912F910F900FBE0F901F901895F894A8
:1015C0000C942C0C04D06894B111B5C0089598D037
:1015D00088F09F5790F0B92F9927B751A0F0D1F01C
:1015E000660F771F881F991F1AF0BA95C9F712C0A6
:1015F000B13081F09FD0B1E008959CC0672F782F63
:101600008827B85F39F0B93FCCF386957795679511
:10161000B395D9F73EF490958095709561957F4F7D
:101620008F4F9F4F0895E89409C097FB3EF4909523
:101630008095709561957F4F8F4F9F4F9923A9F0AB
:10164000F92F96E9BB279395F6958795779567953A
:10165000B795F111F8CFFAF4BB0F11F460FF1BC07E
:101660006F5F7F4F8F4F9F4F16C0882311F096E911
:1016700011C0772321F09EE8872F762F05C06623BF
:1016800071F096E8862F70E060E02AF09A95660F78
:10169000771F881FDAF7880F9695879597F9089531
:1016A00097F99F6780E870E060E008959FEF80EC15
:1016B000089500240A9416161706180609060895B8
:1016C00000240A9412161306140605060895092E1E
:1016D0000394000C11F4882352F0BB0F40F4BF2B8D
:1016E00011F460FF04C06F5F7F4F8F4F9F4F0895CD
:1016F00057FD9058440F551F59F05F3F71F04795C3
:10170000880F97FB991F61F09F3F79F087950895A7
:10171000121613061406551FF2CF4695F1DF08C0C6
:10172000161617061806991FF1CF869571056105E3
:1017300008940895E894BB2766277727CB0197F98B
:1017400008950BD0C4CFB5DF28F0BADF18F0952389
:1017500009F0A6CFABCF1124EECFCADFA0F3959F3F
:10176000D1F3950F50E0551F629FF001729FBB2788
:10177000F00DB11D639FAA27F00DB11DAA1F649F34
:101780006627B00DA11D661F829F2227B00DA11DE7
:10179000621F739FB00DA11D621F839FA00D611D6D
:1017A000221F749F3327A00D611D231F849F600D8E
:1017B000211D822F762F6A2F11249F5750408AF0C7
:1017C000E1F088234AF0EE0FFF1FBB1F661F771F53
:1017D000881F91505040A9F79E3F510570F060CF8F
:1017E000AACF5F3FECF3983EDCF38695779567953B
:1017F000B795F795E7959F5FC1F7FE2B880F911D71
:101800009695879597F90895A1E21A2EAA1BBB1BFE
:10181000FD010DC0AA1FBB1FEE1FFF1FA217B307BC
:10182000E407F50720F0A21BB30BE40BF50B661FD2
:10183000771F881F991F1A9469F760957095809596
:1018400090959B01AC01BD01CF010895EE0FFF1FE4
:0C1850000590F491E02D0994F894FFCF6E
:10185C000000D0022000556E61626C6520746F2010
:10186C00696E697469616C697A6500783A20002C3C
:10187C002000793A20007A3A2000000000002B0268
:10188C00BE03D101FE01E301200200000000570855
:0A189C002A08FF0707081A082908A8
:00000001FF
