:100000000C945A000C9482000C9482000C94820090
:100010000C9482000C9482000C9482000C94820058
:100020000C9482000C9482000C9482000C94820048
:100030000C9482000C9482000C9482000C94820038
:100040000C94EB060C9482000C945C010C949F01C0
:100050000C9482000C9482000C9482000C94820018
:100060000C945A080C948200000000070002010062
:100070000003040600000000000000000102040864
:100080001020408001020408102001020408102002
:10009000040404040404040402020202020203032E
:1000A0000303030300000000250028002B00C0000C
:1000B0005B02560411241FBECFEFD8E0DEBFCDBFD8
:1000C00011E0A0E0B1E0EEE8F4E102C005900D928D
:1000D000A833B107D9F712E0A8E3B1E001C01D923F
:1000E000A23BB107E1F710E0C4EBD0E004C02297D7
:1000F000FE010E94410ACE3AD107C9F70E94780357
:100100000C94E6090C94000040E855E260E070E0D1
:100110008FE391E00E94DA0189EE91E00E941C04D5
:1001200088E391E00E94040688E391E00E9447057D
:1001300084EF91E090933D0180933C010895CF932B
:10014000C0913A0188E391E00E94BE058C9FB00106
:1001500011244AE050E08FE391E00E94720388E3AB
:1001600091E00E949E04882331F066E071E08FE305
:1001700091E00E94EF028FE391E0CF910C94F8029E
:1001800088E391E00C946104FC0124853585F90134
:10019000E05CFF4F80819181F901EE5BFF4F208190
:1001A0003181821B930B8F7399270895FC018485FD
:1001B0009585FC01E05CFF4F40815181FC01EE5BC5
:1001C000FF4F208131814217530741F00190F081A8
:1001D000E02DE80FF91F808190E008958FEF9FEFE9
:1001E0000895FC0184859585FC01E05CFF4F40810A
:1001F0005181FC01EE5BFF4F208131814217530793
:1002000079F0A081B181A80FB91F8C912081318133
:100210002F5F3F4F2F7333273183208390E0089562
:100220008FEF9FEF0895FC0181A1882329F0A48915
:10023000B5898C9186FFFBCF11A20895CF93DF93F0
:10024000FC0126853785D901A05CBF4F8D919C911B
:10025000119701968F739927E901CE5BDF4F488193
:10026000598184179507D9F30D90BC91A02DA20F49
:10027000B31F6C93A685B785A05CBF4F11969C9366
:100280008E93A689B7892C9181E090E0078C02C0FB
:10029000880F991F0A94E2F7282B2C9381E081A301
:1002A0000488F589E02D80818064808381E090E07E
:1002B000DF91CF91089508951F920F920FB60F927C
:1002C00011242F933F934F938F939F93EF93FF931B
:1002D0008091C00082FD1CC04091C6008091E50164
:1002E0009091E60101968F7399272091E701309153
:1002F000E8018217930771F0E091E501F091E601C2
:10030000EB55FE4F40839093E6018093E50102C0D8
:100310008091C600FF91EF919F918F914F913F91F6
:100320002F910F900FBE0F901F9018958FE391E0C3
:100330000E94C400892B11F00C945B0108951F9258
:100340000F920FB60F9211242F933F938F939F9389
:10035000EF93FF932091A1013091A2018091A3011D
:100360009091A4012817390731F48091C1008F7D45
:100370008093C10014C0E091A301F091A401EF5952
:10038000FE4F20818091A3019091A40101968F736B
:1003900099279093A4018093A3012093C600FF9115
:1003A000EF919F918F913F912F910F900FBE0F90E2
:1003B0001F901895CF92DF92EF92FF92CF93DF9329
:1003C000EC016A017B01411581EE58076105710559
:1003D000F9F0EC89FD8981E090E008A002C0880F67
:1003E000991F0A94E2F7808360E079E08DE390E062
:1003F000A70196010E941D0A2150310941095109A6
:100400005695479537952795211580E1380798F03F
:10041000EC89FD89108260E874E88EE190E0A70124
:1004200096010E941D0A2150310941095109569532
:10043000479537952795E889F9893083EA89FB89BB
:10044000208319A2EE89FF89408181E090E09C0120
:100450000C8C02C0220F331F0A94E2F7422B408318
:10046000EE89FF8940819C010D8C02C0220F331F51
:100470000A94E2F7422B4083EE89FF8940819C0178
:100480000E8C02C0220F331F0A94E2F7422B4083E6
:10049000EE89FF8920810F8C02C0880F991F0A9472
:1004A000E2F7809582238083DF91CF91FF90EF90D8
:1004B000DF90CF900895109242011092410188EE92
:1004C00093E0A0E0B0E08093430190934401A093B7
:1004D0004501B093460183E191E090934001809300
:1004E0003F0185EA91E090934C0180934B0181E6B6
:1004F00091E090934E0180934D0185EC90E09093B4
:10050000500180934F0184EC90E0909352018093CE
:10051000510180EC90E0909354018093530181EC61
:1005200090E0909356018093550182EC90E0909377
:1005300058018093570186EC90E090935A01809384
:10054000590184E080935B0183E080935C0187E044
:1005500080935D0185E080935E0181E080935F017F
:100560000895CF92DF92EF92FF920F931F93CF9354
:10057000DF936C017A01EB01E60EF71E00E010E05C
:10058000CE15DF0561F06991D601ED91FC910190E6
:10059000F081E02DC6010995080F191FF1CFC801A0
:1005A000DF91CF911F910F91FF90EF90DF90CF904F
:1005B00008956115710581F0DB010D900020E9F7C8
:1005C000AD0141505109461B570BDC01ED91FC91E7
:1005D0000280F381E02D099480E090E008950C946E
:1005E000D902DC01ED91FC910190F081E02D09949C
:1005F0000F931F93CF93DF93EC016DE00E94F10204
:100600008C016AE0CE010E94F102800F911FDF9100
:10061000CF911F910F9108958F929F92AF92BF92A9
:10062000CF92DF92EF92FF920F931F93CF93DF93BE
:10063000CDB7DEB7A1970FB6F894DEBF0FBECDBF22
:100640007C01C42EE52FCB01D22E19A221E02D155D
:1006500010F02AE0D22E8E010F5D1F4F8D2C912CB1
:10066000A12CB12C6C2D7E2FA50194010E941D0A96
:100670008C2DD29E80191124015011098A3014F456
:10068000805D01C0895CF801808321153105410539
:10069000510521F0C22EE32FCA01E4CFB801C701F2
:1006A0000E94D902A1960FB6F894DEBF0FBECDBF4F
:1006B000DF91CF911F910F91FF90EF90DF90CF903E
:1006C000BF90AF909F908F9008952115310541F410
:1006D000DC01ED91FC910190F081E02D642F0994F3
:1006E0000C940C039A01AB0160E070E00C9465037C
:1006F0000E9441070E948400C6E9D1E00E949F0049
:100700002097E1F30E949601F9CF8091190290E0C1
:1007100020911A02821B9109089520911A0280915A
:100720001902281750F4E22FF0E0E55EFD4F8081BA
:1007300090E02F5F20931A0208958FEF9FEF0895A6
:10074000E0911A0280911902E81730F4F0E0E55EBA
:10075000FD4F808190E008958FEF9FEF08950895F9
:10076000CF92DF92EF92FF920F931F93CF93DF937D
:100770007C01CB018A012091F501222389F0EB0154
:100780006B01C40ED51ECC15DD0569F06991D7014A
:10079000ED91FC910190F081E02DC7010995F3CF17
:1007A000642F0E943108C801DF91CF911F910F91F2
:1007B000FF90EF90DF90CF900895CF93DF931F923B
:1007C000CDB7DEB769832091F5012223D1F02091C6
:1007D000F601203240F021E030E0FC013383228337
:1007E00080E090E015C08091F701E82FF0E0E8503C
:1007F000FE4F998190838F5F8093F7018093F6017C
:1008000005C061E0CE0101960E94310881E090E0D0
:100810000F90DF91CF910895FC011382128248EE70
:1008200053E060E070E0448355836683778383E21E
:1008300091E091838083089510921A021092190218
:100840001092F7011092F6010C947C07862F41322A
:1008500008F040E26BE172E00E949A0710921A02DF
:1008600080931902089521E00C94260481E080937E
:10087000F501609318021092F7011092F6010895A5
:100880000F93062F21E04091F60168EF71E080910F
:1008900018020E94DE071092F7011092F6011092E2
:1008A000F5010F91089561E00C94400489EE91E008
:1008B0000C940C04DC01ED91FC910190F081E02D91
:1008C0000994FC0189E281831282138215821482C9
:1008D00016820895EF92FF920F931F93CF93DF93A9
:1008E0007C018B01EA01FC01618189EE91E00E94AB
:1008F0003604612F70E089EE91E00E945A04B8013D
:10090000772789EE91E00E945A046D2F70E089EEFE
:1009100091E00E945A04BE01772789EE91E00E947F
:100920005A0489EE91E00E945304F7018083DF911D
:10093000CF911F910F91FF90EF900895FC01868158
:1009400016820895EF92FF920F931F93CF93DF9338
:100950001F92CDB7DEB78C017B01FC01618189EE6E
:1009600091E049830E9436046F2D70E089EE91E09A
:100970000E945A04B701772789EE91E00E945A0439
:100980004981642F89EE91E00E94DD0389EE91E0B8
:100990000E945304F80180830F90DF91CF911F9143
:1009A0000F91FF90EF9008950F931F93CF93DF93D4
:1009B000EC018B01698189EE91E00E943604612F80
:1009C00070E089EE91E00E945A04B801772789EE21
:1009D00091E00E945A0489EE91E00E9453048883BA
:1009E00041E0698189EE91E00E94330489EE91E053
:1009F0000E948D03C82F89EE91E00E9453048C2F32
:100A0000DF91CF911F910F910895CF93DF93EC0168
:100A10008FEF860F8330C0F56A83E62FF0E0EE0F8C
:100A2000FF1FE15DFE4F4081518166E970E0CE011C
:100A30000E946A048B816A810E94E909482F64E25E
:100A400070E0CE010E94A2046A8170E084E190E02F
:100A50000E94090A462F61E270E0CE010E94A204C2
:100A60006DE270E0CE010E94D4048E7F91E02A8175
:100A7000213009F090E0482F492B6DE270E0CE0163
:100A8000DF91CF910C94A204DF91CF910895CF9381
:100A9000DF93EC0140E36AE071E00E94A20446E4C7
:100AA0006FE370E0CE010E94A2044FEF61E370E0BB
:100AB000CE010E94A20443E650E060E470E0CE0163
:100AC0000E946A0441E06EE270E0CE010E94A2043E
:100AD00049E06BE170E0CE010E94A20441E36EE3C5
:100AE00070E0CE010E94A20444E264E170E0CE0115
:100AF0000E94A20441E36CE170E0CE010E94A204D6
:100B000040E063EA72E0CE010E94A20461E0CE01FF
:100B1000DF91CF910C9405050F931F93CF93DF9333
:100B2000EC010E9435078B016FE470E0CE010E945A
:100B3000D40482FD11C08C819D81892BA9F30E9470
:100B40003507601B710B8C819D818617970760F7B5
:100B500081E08E838FEF0DC062E670E0CE010E94CF
:100B6000D404182F41E065E170E0CE010E94A20498
:100B7000812FDF91CF911F910F910895CF93DF9334
:100B8000EC0141E068E170E00E94A204CE01DF9137
:100B9000CF910C948C050F931F93CF93DF93EC01AF
:100BA0008B01698189EE91E00E943604612F70E02B
:100BB00089EE91E00E945A04B801772789EE91E00E
:100BC0000E945A0489EE91E00E945304888342E017
:100BD000698189EE91E00E94330489EE91E00E94E0
:100BE0008D03D82F80E0C82F89EE91E00E948D03FD
:100BF000C82BD92B89EE91E00E945304CE01DF91DE
:100C0000CF911F910F910895CF93DF93EC0164E290
:100C100070E00E94D4048B8366E170E0CE010E94F4
:100C2000D404813009F0BDC08A8341E067E072E0FE
:100C3000CE010E94A20441E068E072E0CE010E9471
:100C4000A20440E066E970E0CE010E94A2044DEFEC
:100C500067E970E0CE010E94A20440E063EE70E01C
:100C6000CE010E94A20444E064EE70E0CE010E9436
:100C7000A20442E065EE70E0CE010E94A20441E0D1
:100C800066EE70E0CE010E94A20443E067EE70E0E1
:100C9000CE010E94A20442E065EF70E0CE010E9406
:100CA000A20445E069ED70E0CE010E94A2044EEC82
:100CB0006BED70E0CE010E94A20443E06CED70E0A9
:100CC000CE010E94A20448EF6DED70E0CE010E94BB
:100CD000A20440E06FE970E0CE010E94A2044CE360
:100CE00063EA70E0CE010E94A20440E067EB70E08E
:100CF000CE010E94A2044CE36BEB70E0CE010E9497
:100D0000A20449E062EB70E0CE010E94A20449E037
:100D10006AEC70E0CE010E94A20441E068E971E053
:100D2000CE010E94A20447E160EB71E0CE010E9477
:100D3000A20440E06DEA71E0CE010E94A20445E009
:100D40006FEF70E0CE010E94A20445E060E071E028
:100D5000CE010E94A20445E069E971E0CE010E9443
:100D6000A2044BE166EA71E0CE010E94A2044EE3C8
:100D70006CEA71E0CE010E94A2044FE167EA71E0E3
:100D8000CE010E94A20440E060E370E0CE010E9428
:100D9000A20440E066E170E0CE01DF91CF910C94B7
:100DA000A20466E970E0CE010E94CB05843591056E
:100DB00011F483E006C08F37910511F482E001C081
:100DC00081E08A839B818A81989F802D11248B8367
:100DD000DF91CF9108951F920F920FB60F921124B9
:100DE0002F933F938F939F93AF93BF9380913C0238
:100DF00090913D02A0913E02B0913F0230913B02A2
:100E000023E0230F2D3720F40196A11DB11D05C04D
:100E100026E8230F0296A11DB11D20933B0280936B
:100E20003C0290933D02A0933E02B0933F0280911A
:100E3000400290914102A0914202B091430201967A
:100E4000A11DB11D8093400290934102A0934202E4
:100E5000B0934302BF91AF919F918F913F912F919A
:100E60000F900FBE0F901F9018952FB7F8946091B8
:100E70003C0270913D0280913E0290913F022FBF53
:100E80000895789484B5826084BD84B5816084BD02
:100E900085B5826085BD85B5816085BDEEE6F0E0F3
:100EA000808181608083E1E8F0E01082808182604F
:100EB0008083808181608083E0E8F0E080818160D0
:100EC0008083E1EBF0E0808184608083E0EBF0E000
:100ED000808181608083EAE7F0E0808184608083A4
:100EE000808182608083808181608083808180684E
:100EF00080831092C10008951092B10281E0809326
:100F0000AF021092AE0261E082E10E94B00961E09E
:100F100083E10E94B009E9EBF0E080818E7F80835D
:100F200080818D7F808388E48093B80085E48093FE
:100F3000BC000895413208F03FC09091B102911178
:100F4000FCCF91E09093B1022093AF022FEF20935A
:100F5000440210928902240F209388029093B002D9
:100F60009091B002880F892B8093B0028091AE02DD
:100F7000813041F41092AE028091B0028093BB00A8
:100F800085EC01C085EE8093BC008091B102813078
:100F9000E1F380918902841710F4409189022AE8D4
:100FA00032E0FB01D9018A2F821B841718F48D913E
:100FB0008193F9CF842F089580E008950F934132F3
:100FC00008F046C09091B1029111FCCF92E090934D
:100FD000B1020093AF029FEF9093440210928902F6
:100FE00040938802FB016AE872E0DB019A2F961BAE
:100FF000941718F491919D93F9CF1092B0029091AB
:10100000B002880F892B8093B0028091AE028130AC
:1010100041F41092AE028091B0028093BB0085EC47
:1010200001C085EE8093BC00222321F08091B102A3
:101030008230E1F3809144028F3F61F0809144025D
:10104000803251F080914402803341F483E007C044
:1010500081E005C080E003C082E001C084E00F9120
:101060000895613298F42091B102243089F460939C
:101070006602FC0188E692E0DC012A2F281B261775
:1010800018F421912D93F9CF80E0089581E008951F
:1010900082E0089585ED8093BC008091BC0084FDC2
:1010A000FCCF1092B102089585EC8093BC001092A1
:1010B000B10208951F920F920FB60F9211242F9331
:1010C0003F934F935F936F937F938F939F93AF93D0
:1010D000BF93EF93FF938091B900887F803609F426
:1010E0009CC068F5883209F45BC090F4803109F443
:1010F00054C038F4882309F4F5C0883009F44DC091
:10110000F5C0883109F44CC0803209F45DC0EEC0EE
:10111000803409F468C048F4803309F455C088333A
:1011200009F0E4C080934402A8C0803509F44FC0A0
:10113000883509F45DC0883409F0D8C0D5C0883935
:1011400009F4C6C0A8F4883709F467C038F48836B3
:1011500009F463C0803709F460C0C8C0883809F456
:10116000B7C0803909F45FC0803809F0BFC05BC0E8
:10117000803B09F485C038F4803A09F466C0883AA7
:1011800009F47EC0B3C0803C09F4A6C0883C09F4D1
:10119000A3C0883B09F489C0A9C08091B00210C0E7
:1011A0009091890280918802981770F5E0918902E8
:1011B00081E08E0F80938902F0E0E657FD4F808139
:1011C0008093BB0085EC85C0809344028DC0E09184
:1011D000890281E08E0F809389028091BB00F0E04C
:1011E000E657FD4F808390918902809188026DC0FF
:1011F000E091890281E08E0F809389028091BB008B
:10120000F0E0E657FD4F80838091AF0281116CC002
:1012100081E08093AE0284EA60C083E08093B102F3
:1012200010924502CFCF80914502803208F050C025
:10123000E091450281E08E0F809345028091BB00D2
:10124000F0E0EA5BFD4F8083BDCF809145028032A4
:1012500030F4E0914502F0E0EA5BFD4F10820E941D
:101260004A086091450270E0E091AA02F091AB0259
:1012700086E492E00995109245020E94540836C017
:1012800084E08093B1021092670210926602E091AE
:10129000AC02F091AD02099580916602811105C002
:1012A00081E08093660210926802E091670281E01B
:1012B0008E0F80936702F0E0E859FD4F80818093A4
:1012C000BB009091670280916602981708F47ACF6C
:1012D00085E88093BC000AC085EC8093BC00109226
:1012E000B10204C0109244020E944A08FF91EF919B
:1012F000BF91AF919F918F917F916F915F914F912E
:101300003F912F910F900FBE0F901F901895833033
:1013100081F028F4813099F08230A1F00895863070
:10132000A9F08730B9F08430D1F4809180008F7DAE
:1013300003C0809180008F7780938000089584B5EA
:101340008F7702C084B58F7D84BD08958091B000F1
:101350008F7703C08091B0008F7D8093B000089597
:101360000F931F93CF93DF931F92CDB7DEB7282F34
:1013700030E0F901E859FF4F8491F901E458FF4F3B
:101380001491F901E057FF4F04910023C9F088231D
:1013900021F069830E9487096981E02FF0E0EE0F58
:1013A000FF1FEC55FF4FA591B4919FB7F8948C9116
:1013B000611103C01095812301C0812B8C939FBFC5
:1013C0000F90DF91CF911F910F910895F8940C9495
:1013D000450A991B79E004C0991F961708F0961BDF
:1013E000881F7A95C9F780950895AA1BBB1B51E108
:1013F00007C0AA1FBB1FA617B70710F0A61BB70B85
:10140000881F991F5A95A9F780959095BC01CD0129
:10141000089597FB072E16F4009407D077FD09D0A6
:101420000E94F50907FC05D03EF4909581959F4FE9
:101430000895709561957F4F0895A1E21A2EAA1B19
:10144000BB1BFD010DC0AA1FBB1FEE1FFF1FA21774
:10145000B307E407F50720F0A21BB30BE40BF50B71
:10146000661F771F881F991F1A9469F760957095FA
:10147000809590959B01AC01BD01CF010895EE0FC1
:0E148000FF1F0590F491E02D0994F894FFCF22
:10148E000000B20220002054494D454F5554000033
:10149E000000001E01B102C400F100D600130100CD
:1014AE00000000DD03B00385038D03A003AF03002E
:0814BE0000FD007F0054000056
:00000001FF
