:100000000C9464000C948C000C948C000C948C0068
:100010000C948C000C948C000C948C000C948C0030
:100020000C948C000C948C000C948C000C948C0020
:100030000C948C000C948C000C948C000C948C0010
:100040000C9444010C948C000C94B6020C94F902AC
:100050000C948C000C948C000C948C000C948C00F0
:100060000C94A30C0C948C0000000007000201000B
:100070000003040600000000000000000102040864
:100080001020408001020408102001020408102002
:10009000040404040404040402020202020203032E
:1000A00003030303000000002300260029000000D2
:1000B0000000250028002B0000000000240027007D
:1000C0002A003C01B5032C0611241FBECFEFD8E057
:1000D000DEBFCDBF11E0A0E0B1E0E6EAFEE102C084
:1000E00005900D92A438B107D9F713E0A4E8B1E068
:1000F00001C01D92A131B107E1F710E0C8ECD0E0DA
:1001000004C02297FE010E944D0FC23CD107C9F7DF
:100110000E944E050C94D00D0C94000040E855E26E
:1001200060E070E087EA91E00E94340381E592E0AC
:100130000E94F20587E991E00E94DA0787E991E0E1
:100140000E941D0784EF91E090939C0180939B0196
:100150004AE660E070E084E891E00E94B30A811111
:1001600007C066E071E087EA91E00E946604FFCF75
:100170000895CF9384E891E00E940E0962E271E055
:1001800087EA91E00E944904C091990187E991E0D2
:100190000E9494078C9FB00111244AE050E087EA46
:1001A00091E00E94480587E991E00E947406882347
:1001B00031F06EE271E087EA91E00E94490487EA3B
:1001C00091E00E94520467E371E087EA91E00E94A7
:1001D000490460918401709185018091860190911C
:1001E00087010E94D30D4AE050E087EA91E00E9427
:1001F0001B0562E471E087EA91E00E94490465E42E
:1002000071E087EA91E00E94490460918801709151
:10021000890180918A0190918B010E94D30D4AE05F
:1002200050E087EA91E00E941B0562E471E087EAF2
:1002300091E00E94490460E571E087EA91E00E9444
:10024000490460918C0170918D0180918E01909193
:100250008F010E94D30D4AE050E087EA91E00E94AE
:10026000230587EA91E00E9452046CE271E080E08D
:1002700090E0CF910C94BD0187E991E00E94370690
:1002800084E891E00C94C1081F920F920FB60F9270
:1002900011242F933F938F939F93AF93BF9380919C
:1002A0009F019091A001A091A101B091A201309174
:1002B0009E0123E0230F2D3720F40196A11DB11DCF
:1002C00005C026E8230F0296A11DB11D20939E01B3
:1002D00080939F019093A001A093A101B093A201EC
:1002E0008091A3019091A401A091A501B091A601D4
:1002F0000196A11DB11D8093A3019093A401A09329
:10030000A501B093A601BF91AF919F918F913F91AD
:100310002F910F900FBE0F901F9018952FB7F89444
:1003200060919F017091A0018091A1019091A20123
:100330002FBF08953FB7F8948091A3019091A40135
:10034000A091A501B091A60126B5A89B05C02F3F9D
:1003500019F00196A11DB11D3FBF6627782F892F87
:100360009A2F620F711D811D911D42E0660F771F4C
:10037000881F991F4A95D1F70895CF92DF92EF9287
:10038000FF92CF93DF936B017C010E949A01EB01F6
:10039000C114D104E104F10479F00E949A016C1BAC
:1003A0007D0B683E7340A0F381E0C81AD108E108D4
:1003B000F108C851DC4FECCFDF91CF91FF90EF9067
:1003C000DF90CF900895789484B5826084BD84B521
:1003D000816084BD85B5826085BD85B5816085BD40
:1003E000EEE6F0E0808181608083E1E8F0E0108259
:1003F000808182608083808181608083E0E8F0E09A
:10040000808181608083E1EBF0E080818460808383
:10041000E0EBF0E0808181608083EAE7F0E08081BA
:10042000846080838081826080838081816080831A
:100430008081806880831092C1000895FC0124852A
:100440003585F901E05CFF4F80819181F901EE5B18
:10045000FF4F20813181821B930B8F739927089561
:10046000FC0184859585FC01E05CFF4F4081518152
:10047000FC01EE5BFF4F208131814217530741F0B1
:100480000190F081E02DE80FF91F808190E0089540
:100490008FEF9FEF0895FC0184859585FC01E05C5A
:1004A000FF4F40815181FC01EE5BFF4F2081318184
:1004B0004217530779F0A081B181A80FB91F8C9121
:1004C000208131812F5F3F4F2F733327318320836A
:1004D00090E008958FEF9FEF0895FC0181A188239C
:1004E00029F0A489B5898C9186FFFBCF11A20895CC
:1004F000CF93DF93FC0126853785D901A05CBF4FE0
:100500008D919C91119701968F739927E901CE5B8C
:10051000DF4F4881598184179507D9F30D90BC911D
:10052000A02DA20FB31F6C93A685B785A05CBF4F0B
:1005300011969C938E93A689B7892C9181E090E0C7
:10054000078C02C0880F991F0A94E2F7282B2C937E
:1005500081E081A30488F589E02D80818064808317
:1005600081E090E0DF91CF91089508951F920F925E
:100570000FB60F9211242F933F934F938F939F9316
:10058000EF93FF938091C00082FD1CC04091C60094
:1005900080914D0290914E0201968F739927209180
:1005A0004F02309150028217930771F0E0914D0293
:1005B000F0914E02E35FFD4F408390934E02809393
:1005C0004D0202C08091C600FF91EF919F918F91E3
:1005D0004F913F912F910F900FBE0F901F90189544
:1005E00087EA91E00E941E02892B11F00C94B5025B
:1005F00008951F920F920FB60F9211242F933F93DD
:100600008F939F93EF93FF932091090230910A02F9
:1006100080910B0290910C022817390731F48091D8
:10062000C1008F7D8093C10014C0E0910B02F09156
:100630000C02E753FE4F208180910B0290910C0237
:1006400001968F73992790930C0280930B0220934D
:10065000C600FF91EF919F918F913F912F910F9045
:100660000FBE0F901F901895CF92DF92EF92FF92DE
:10067000CF93DF93EC016A017B01411581EE5807AE
:1006800061057105F9F0EC89FD8981E090E008A031
:1006900002C0880F991F0A94E2F7808360E079E036
:1006A0008DE390E0A70196010E94290F21503109A6
:1006B000410951095695479537952795211580E1B0
:1006C000380798F0EC89FD89108260E874E88EE1C3
:1006D00090E0A70196010E94290F2150310941099C
:1006E00051095695479537952795E889F9893083BB
:1006F000EA89FB89208319A2EE89FF89408181E084
:1007000090E09C010C8C02C0220F331F0A94E2F788
:10071000422B4083EE89FF8940819C010D8C02C0F1
:10072000220F331F0A94E2F7422B4083EE89FF89A0
:1007300040819C010E8C02C0220F331F0A94E2F705
:10074000422B4083EE89FF8920810F8C02C0880FE5
:10075000991F0A94E2F7809582238083DF91CF91DD
:10076000FF90EF90DF90CF9008951092AA01109221
:10077000A90188EE93E0A0E0B0E08093AB019093F4
:10078000AC01A093AD01B093AE018FE591E09093E1
:10079000A8018093A7018DE092E09093B40180932B
:1007A000B30189EC91E09093B6018093B50185EC9B
:1007B00090E09093B8018093B70184EC90E090931F
:1007C000BA018093B90180EC90E09093BC018093D2
:1007D000BB0181EC90E09093BE018093BD0182EC5F
:1007E00090E09093C0018093BF0186EC90E09093DD
:1007F000C2018093C10184E08093C30183E08093B0
:10080000C40187E08093C50185E08093C60181E043
:100810008093C7010895CF92DF92EF92FF920F93DA
:100820001F93CF93DF936C017A01EB01E60EF71E65
:1008300000E010E0CE15DF0561F06991D601ED9181
:10084000FC910190F081E02DC6010995080F191F58
:10085000F1CFC801DF91CF911F910F91FF90EF90E1
:10086000DF90CF9008956115710581F0DB010D9047
:100870000020E9F7AD0141505109461B570BDC013F
:10088000ED91FC910280F381E02D099480E090E0ED
:1008900008950C943304DC01ED91FC910190F081FA
:1008A000E02D09940F931F93CF93DF93EC016DE03C
:1008B0000E944B048C016AE0CE010E944B04800F21
:1008C000911FDF91CF911F910F9108950F931F9367
:1008D000CF93DF93EC010E9433048C01CE010E9480
:1008E0005204800F911FDF91CF911F910F910895B6
:1008F0008F929F92AF92BF92CF92DF92EF92FF9230
:100900000F931F93CF93DF93CDB7DEB7A1970FB6A9
:10091000F894DEBF0FBECDBF7C01C42EE52FCB0106
:10092000D22E19A221E02D1510F02AE0D22E8E0130
:100930000F5D1F4F8D2C912CA12CB12C6C2D7E2F77
:10094000A50194010E94290F8C2DD29E801911249B
:10095000015011098A3014F4805D01C0895CF801EE
:100960008083211531054105510521F0C22EE32F69
:10097000CA01E4CFB801C7010E943304A1960FB6A3
:10098000F894DEBF0FBECDBFDF91CF911F910F91C5
:10099000FF90EF90DF90CF90BF90AF909F908F909F
:1009A0000895CF92DF92EF92FF920F931F93CF9310
:1009B000DF93EC016A017B012115310579F4E881AF
:1009C000F9810190F081E02D642FDF91CF911F918B
:1009D0000F91FF90EF90DF90CF9009942A3031056E
:1009E000E9F477FF1AC06DE20E944B048C014427A2
:1009F0005527BA014C195D096E097F092AE0CE011D
:100A00000E947804800F911FDF91CF911F910F9169
:100A1000FF90EF90DF90CF9008952AE0B701A601F4
:100A2000CE01DF91CF911F910F91FF90EF90DF905A
:100A3000CF900C9478049A01AB01662757FD60951E
:100A4000762F0C94D1040F931F93CF93DF93EC0177
:100A50009A01AB01662757FD6095762F0E94D1045D
:100A60008C01CE010E945204800F911FDF91CF9123
:100A70001F910F9108952115310541F4DC01ED918D
:100A8000FC910190F081E02D642F09940C9478047E
:100A90009A01AB0160E070E00C943B050E94E30119
:100AA0000E948E00C0EFD2E00E94B9002097E1F3CF
:100AB0000E94F002F9CF8091810290E020918202A1
:100AC000821B91090895209182028091810228174A
:100AD00050F4E22FF0E0ED57FD4F808190E02F5F62
:100AE0002093820208958FEF9FEF0895E091820294
:100AF00080918102E81730F4F0E0ED57FD4F8081DE
:100B000090E008958FEF9FEF08950895CF92DF92C0
:100B1000EF92FF920F931F93CF93DF937C01CB0152
:100B20008A0120915D02222389F0EB016B01C40E42
:100B3000D51ECC15DD0569F06991D701ED91FC91C9
:100B40000190F081E02DC7010995F3CF642F0E9439
:100B50007A0CC801DF91CF911F910F91FF90EF9018
:100B6000DF90CF900895CF93DF931F92CDB7DEB77C
:100B7000698320915D022223D1F020915E02203210
:100B800040F021E030E0FC013383228380E090E0FC
:100B900015C080915F02E82FF0E0E05AFD4F998187
:100BA00090838F5F80935F0280935E0205C061E057
:100BB000CE0101960E947A0C81E090E00F90DF91C7
:100BC000CF910895FC011382128248EE53E060E059
:100BD00070E044835583668377838FE691E0918349
:100BE00080830895109282021092810210925F0217
:100BF00010925E020C94C50B862F413208F040E241
:100C000063E872E00E94E30B1092820280938102FB
:100C1000089521E00C94FC0581E080935D026093CF
:100C2000800210925F0210925E0208950F93062FC9
:100C300021E040915E0260E672E0809180020E94B5
:100C4000270C10925F0210925E0210925D020F91CB
:100C5000089561E00C94160681E592E00C94E2059B
:100C6000DC01ED91FC910190F081E02D0994FC01F3
:100C700089E281831282138215821482168208957A
:100C8000EF92FF920F931F93CF93DF937C018B0121
:100C9000EA01FC01618181E592E00E940C06612F6E
:100CA00070E081E592E00E943006B801772781E587
:100CB00092E00E9430066D2F70E081E592E00E9484
:100CC0003006BE01772781E592E00E94300681E57B
:100CD00092E00E942906F7018083DF91CF911F9156
:100CE0000F91FF90EF900895FC0186811682089580
:100CF000EF92FF920F931F93CF93DF931F92CDB785
:100D0000DEB78C017B01FC01618181E592E04983C2
:100D10000E940C066F2D70E081E592E00E94300683
:100D2000B701772781E592E00E9430064981642F60
:100D300081E592E00E94B30581E592E00E942906D8
:100D4000F80180830F90DF91CF911F910F91FF9059
:100D5000EF9008950F931F93CF93DF93EC018B01D6
:100D6000698181E592E00E940C06612F70E081E5C7
:100D700092E00E943006B801772781E592E00E9458
:100D8000300681E592E00E942906888341E069816E
:100D900081E592E00E94090681E592E00E946305E8
:100DA000C82F81E592E00E9429068C2FDF91CF9118
:100DB0001F910F910895CF93DF93EC018FEF860F72
:100DC0008330C0F56A83E62FF0E0EE0FFF1FE55891
:100DD000FE4F4081518166E970E0CE010E944006DD
:100DE0008B816A810E94F50E482F64E270E0CE018B
:100DF0000E9478066A8170E084E190E00E94150FFD
:100E0000462F61E270E0CE010E9478066DE270E04C
:100E1000CE010E94AA068E7F91E02A81213009F03E
:100E200090E0482F492B6DE270E0CE01DF91CF9129
:100E30000C947806DF91CF910895CF93DF93EC0166
:100E400040E36AE071E00E94780646E46FE370E0F8
:100E5000CE010E9478064FEF61E370E0CE010E9460
:100E6000780643E650E060E470E0CE010E94400660
:100E700041E06EE270E0CE010E94780649E06BE14D
:100E800070E0CE010E94780641E36EE370E0CE018F
:100E90000E94780644E264E170E0CE010E94780688
:100EA00041E36CE170E0CE010E94780640E063EA25
:100EB00072E0CE010E94780661E0CE01DF91CF9111
:100EC0000C94DB060F931F93CF93DF93EC010E94EA
:100ED0008E018B016FE470E0CE010E94AA0682FDB4
:100EE00011C08C819D81892BA9F30E948E01601B0A
:100EF000710B8C819D818617970760F781E08E8347
:100F00008FEF0DC062E670E0CE010E94AA06182F96
:100F100041E065E170E0CE010E947806812FDF910B
:100F2000CF911F910F910895CF93DF93EC0141E092
:100F300068E170E00E947806CE01DF91CF910C94B9
:100F400062070F931F93CF93DF93EC018B016981AD
:100F500081E592E00E940C06612F70E081E592E04D
:100F60000E943006B801772781E592E00E943006A2
:100F700081E592E00E942906888342E0698181E54B
:100F800092E00E94090681E592E00E946305D82F55
:100F900080E0C82F81E592E00E946305C82BD92B21
:100FA00081E592E00E942906CE01DF91CF911F9149
:100FB0000F910895CF93DF93EC0164E270E00E94FB
:100FC000AA068B8366E170E0CE010E94AA068130FA
:100FD00009F0BDC08A8341E067E072E0CE010E9463
:100FE000780641E068E072E0CE010E94780640E0B9
:100FF00066E970E0CE010E9478064DEF67E970E087
:10100000CE010E94780640E063EE70E0CE010E94BF
:10101000780644E064EE70E0CE010E94780642E07B
:1010200065EE70E0CE010E94780641E066EE70E069
:10103000CE010E94780643E067EE70E0CE010E9488
:10104000780642E065EF70E0CE010E94780645E048
:1010500069ED70E0CE010E9478064EEC6BED70E019
:10106000CE010E94780643E06CED70E0CE010E9454
:10107000780648EF6DED70E0CE010E94780640E002
:101080006FE970E0CE010E9478064CE363EA70E0FD
:10109000CE010E94780640E067EB70E0CE010E942E
:1010A00078064CE36BEB70E0CE010E94780649E0D5
:1010B00062EB70E0CE010E94780649E06AEC70E0D5
:1010C000CE010E94780641E068E971E0CE010E94FD
:1010D000780647E160EB71E0CE010E94780640E0BF
:1010E0006DEA71E0CE010E94780645E06FEF70E096
:1010F000CE010E94780645E060E071E0CE010E94DA
:10110000780645E069E971E0CE010E9478064BE17E
:1011100066EA71E0CE010E9478064EE36CEA71E067
:10112000CE010E9478064FE167EA71E0CE010E948D
:10113000780640E060E370E0CE010E94780640E06F
:1011400066E170E0CE01DF91CF910C94780666E9FC
:1011500070E0CE010E94A1078435910511F483E06F
:1011600006C08F37910511F482E001C081E08A83C7
:101170009B818A81989F802D11248B83DF91CF9151
:101180000895FC018FEF818B8787808B828B089578
:10119000BF92CF92DF92EF92FF920F931F93CF9364
:1011A000DF938C01C7E0D0E0B12CE62EF12CCC24EB
:1011B000C394D12C60E0F80181890E94660B9701ED
:1011C0000C2E02C0359527950A94E2F720FF02C045
:1011D00061E001C060E0F80180890E94660B61E077
:1011E000F80181890E94660BF80187850E949C0B9B
:1011F000892B39F096010C2E01C0220F0A94EAF7D0
:10120000B22A2197B8F68B2DDF91CF911F910F91C4
:10121000FF90EF90DF90CF90BF9008954F925F9234
:101220006F927F928F929F92AF92BF92CF92DF92F6
:10123000EF92FF92CF93DF93EC018A898F3F09F001
:101240003FC06C8581E592E00E940C06E09151025E
:10125000F09152020190F081E02D68EA81E592E080
:10126000099581E592E00E94290646E06C8581E5BA
:1012700092E00E94090681E592E00E945B050697D4
:10128000D4F381E592E00E946305A82E81E592E007
:101290000E946305B82E81E592E00E946305C82E86
:1012A00081E592E00E946305D82E81E592E00E94DC
:1012B0006305E82E81E592E00E946305F82E34C0B4
:1012C00061E089890E94660B60E08A890E94660B52
:1012D00068EECE010E94C80864E170E080E090E012
:1012E0000E94BD016FEFCE010E94C808A82E6FEFCB
:1012F000CE010E94C808B82E6FEFCE010E94C80828
:10130000C82E6FEFCE010E94C808D82E6FEFCE0115
:101310000E94C808E82E6FEFCE010E94C808F82E80
:1013200061E08A890E94660B6A2D70E07B2988271C
:1013300077FD8095982F0E94060E2B013C01688353
:1013400079838A839B836C2D70E07D29882777FDC4
:101350008095982F0E94060E4B015C016C837D8363
:101360008E839F836E2D70E07F29882777FD80957F
:10137000982F0E94060E6B017C01688779878A8707
:101380009B878D859E858130910519F1823091056D
:10139000E9F1892B09F05EC029E23CE54FE05CE30E
:1013A000C301B2010E94920E688379838A839B8372
:1013B00029E23CE54FE05CE3C501B4010E94920ED6
:1013C0006C837D838E839F8329E23CE54FE05CE361
:1013D00039C029E23CE54FE85CE3C301B2010E9459
:1013E000920E688379838A839B8329E23CE54FE8E8
:1013F0005CE3C501B4010E94920E6C837D838E83F1
:101400009F8329E23CE54FE85CE31CC029E23CE510
:101410004FE85DE3C301B2010E94920E68837983B5
:101420008A839B8329E23CE54FE85DE3C501B40173
:101430000E94920E6C837D838E839F8329E23CE51C
:101440004FE85DE3C701B6010E94920E6887798775
:101450008A879B87DF91CF91FF90EF90DF90CF90AD
:10146000BF90AF909F908F907F906F905F904F90C4
:1014700008950F931F93CF93DF93EC01162F042F42
:101480008A898F3FB9F46C8581E592E00E940C0651
:10149000612F81E592E00E94B305602F81E592E023
:1014A0000E94B30581E592E0DF91CF911F910F91EA
:1014B0000C94290661E089890E94660B60E08A89A4
:1014C0000E94660B612FCE010E94C808602FCE01DA
:1014D0000E94C80861E08A89DF91CF911F910F9126
:1014E0000C94660B1F93CF93DF93EC01162F8A8920
:1014F0008F3FF1F46C8581E592E00E940C06612F2C
:1015000081E592E00E94B30581E592E00E94290600
:1015100041E06C8581E592E00E94090681E592E058
:101520000E946305182F81E592E00E94290616C0EB
:1015300061E089890E94660B60E08A890E94660BDF
:10154000612F6068CE010E94C8086FEFCE010E9433
:10155000C808182F61E08A890E94660B812FDF91ED
:10156000CF911F910895FF920F931F93CF93DF9315
:10157000EC018B01F42E8A898F3F29F481E592E0FA
:101580000E94F20513C061E00E942D0B61E0898981
:101590000E942D0B61E088890E942D0B60E08F85F1
:1015A0000E942D0B61E08A890E94660BFC861E87D3
:1015B0000D876FE070E0CE010E94720A843DD9F47D
:1015C0004FE060E270E0CE010E94390A8D859E8571
:1015D0008130910539F08230910531F0892B69F421
:1015E00040E003C040E101C040E263E270E0CE01B0
:1015F0000E94390A02C080E001C081E0DF91CF91F2
:101600001F910F91FF900895833081F028F481306D
:1016100099F08230A1F008958630A9F08730B9F0B2
:101620008430D1F4809180008F7D03C08091800050
:101630008F7780938000089584B58F7702C084B53A
:101640008F7D84BD08958091B0008F7703C0809115
:10165000B0008F7D8093B0000895CF93DF9390E02A
:10166000FC01E458FF4F2491FC01E057FF4F8491A7
:10167000882349F190E0880F991FFC01E854FF4F3F
:10168000A591B49182559F4FFC01C591D4919FB70C
:10169000611108C0F8948C91209582238C938881E5
:1016A00082230AC0623051F4F8948C91322F309525
:1016B00083238C938881822B888304C0F8948C9137
:1016C000822B8C939FBFDF91CF9108950F931F932F
:1016D000CF93DF931F92CDB7DEB7282F30E0F9010B
:1016E000E859FF4F8491F901E458FF4F1491F90133
:1016F000E057FF4F04910023C9F0882321F069834C
:101700000E94040B6981E02FF0E0EE0FFF1FE2550D
:10171000FF4FA591B4919FB7F8948C91611103C0CC
:101720001095812301C0812B8C939FBF0F90DF9177
:10173000CF911F910F910895CF93DF93282F30E021
:10174000F901E859FF4F8491F901E458FF4FD49112
:10175000F901E057FF4FC491CC2391F081110E9411
:10176000040BEC2FF0E0EE0FFF1FEC55FF4FA5919F
:10177000B4912C912D2381E090E021F480E002C00F
:1017800080E090E0DF91CF9108951092100381E006
:1017900080930E0310920D0361E082E10E94660BBC
:1017A00061E083E10E94660BE9EBF0E080818E7FCF
:1017B000808380818D7F808388E48093B80085E476
:1017C0008093BC000895413208F03FC0909110030F
:1017D0009111FCCF91E09093100320930E032FEF13
:1017E0002093A3021092E802240F2093E702909323
:1017F0000F0390910F03880F892B80930F03809123
:101800000D03813041F410920D0380910F038093FA
:10181000BB0085EC01C085EE8093BC008091100375
:101820008130E1F38091E802841710F44091E802DE
:1018300029EE32E0FB01D9018A2F821B841718F4AC
:101840008D918193F9CF842F089580E008950F93AF
:10185000413208F046C0909110039111FCCF92E004
:101860009093100300930E039FEF9093A3021092A6
:10187000E8024093E702FB0169EE72E0DB019A2F78
:10188000961B941718F491919D93F9CF10920F0322
:1018900090910F03880F892B80930F0380910D0384
:1018A000813041F410920D0380910F038093BB00AF
:1018B00085EC01C085EE8093BC00222321F080914D
:1018C00010038230E1F38091A3028F3F61F0809199
:1018D000A302803251F08091A302803341F483E06F
:1018E00007C081E005C080E003C082E001C084E061
:1018F0000F910895613298F420911003243089F4F7
:101900006093C502FC0187EC92E0DC012A2F281BC2
:10191000261718F421912D93F9CF80E0089581E0E6
:10192000089582E0089585ED8093BC008091BC000D
:1019300084FDFCCF10921003089585EC8093BC00C9
:101940001092100308951F920F920FB60F92112458
:101950002F933F934F935F936F937F938F939F93B7
:10196000AF93BF93EF93FF938091B900887F803648
:1019700009F49CC068F5883209F45BC090F48031AA
:1019800009F454C038F4882309F4F5C0883009F408
:101990004DC0F5C0883109F44CC0803209F45DC0F7
:1019A000EEC0803409F468C048F4803309F455C0AF
:1019B000883309F0E4C08093A302A8C0803509F4FD
:1019C0004FC0883509F45DC0883409F0D8C0D5C04F
:1019D000883909F4C6C0A8F4883709F467C038F418
:1019E000883609F463C0803709F460C0C8C08838FD
:1019F00009F4B7C0803909F45FC0803809F0BFC06E
:101A00005BC0803B09F485C038F4803A09F466C0B5
:101A1000883A09F47EC0B3C0803C09F4A6C0883C73
:101A200009F4A3C0883B09F489C0A9C080910F03C1
:101A300010C09091E8028091E702981770F5E0914C
:101A4000E80281E08E0F8093E802F0E0E751FD4F5D
:101A500080818093BB0085EC85C08093A3028DC0FC
:101A6000E091E80281E08E0F8093E8028091BB0054
:101A7000F0E0E751FD4F80839091E8028091E7020A
:101A80006DC0E091E80281E08E0F8093E8028091C2
:101A9000BB00F0E0E751FD4F808380910E03811180
:101AA0006CC081E080930D0384EA60C083E0809382
:101AB00010031092A402CFCF8091A402803208F0CC
:101AC00050C0E091A40281E08E0F8093A402809127
:101AD000BB00F0E0EB55FD4F8083BDCF8091A402A9
:101AE000803230F4E091A402F0E0EB55FD4F10821B
:101AF0000E94930C6091A40270E0E0910903F091C0
:101B00000A0385EA92E009951092A4020E949D0CB6
:101B100036C084E0809310031092C6021092C50272
:101B2000E0910B03F0910C0309958091C50281119E
:101B300005C081E08093C5021092C702E091C60201
:101B400081E08E0F8093C602F0E0E953FD4F808163
:101B50008093BB009091C6028091C502981708F44B
:101B60007ACF85E88093BC000AC085EC8093BC00E6
:101B70001092100304C01092A3020E94930CFF91D4
:101B8000EF91BF91AF919F918F917F916F915F91F5
:101B90004F913F912F910F900FBE0F901F9018956E
:101BA000F8940C94510F04D06894B111B5C0089505
:101BB00098D088F09F5790F0B92F9927B751A0F08F
:101BC000D1F0660F771F881F991F1AF0BA95C9F7D1
:101BD00012C0B13081F09FD0B1E008959CC0672F52
:101BE000782F8827B85F39F0B93FCCF38695779581
:101BF0006795B395D9F73EF490958095709561956A
:101C00007F4F8F4F9F4F0895E89409C097FB3EF494
:101C100090958095709561957F4F8F4F9F4F992339
:101C2000A9F0F92F96E9BB279395F69587957795B7
:101C30006795B795F111F8CFFAF4BB0F11F460FF77
:101C40001BC06F5F7F4F8F4F9F4F16C0882311F0CF
:101C500096E911C0772321F09EE8872F762F05C0E3
:101C6000662371F096E8862F70E060E02AF09A957E
:101C7000660F771F881FDAF7880F9695879597F973
:101C8000089597F99F6780E870E060E008959FEFFE
:101C900080EC089500240A94161617061806090603
:101CA000089500240A9412161306140605060895D2
:101CB000092E0394000C11F4882352F0BB0F40F45A
:101CC000BF2B11F460FF04C06F5F7F4F8F4F9F4F9A
:101CD000089557FD9058440F551F59F05F3F71F01C
:101CE0004795880F97FB991F61F09F3F79F0879583
:101CF0000895121613061406551FF2CF4695F1DF0C
:101D000008C0161617061806991FF1CF869571059B
:101D1000610508940895E894BB2766277727CB01CF
:101D200097F908950BD0C4CFB5DF28F0BADF18F0CB
:101D3000952309F0A6CFABCF1124EECFCADFA0F3D5
:101D4000959FD1F3950F50E0551F629FF001729F50
:101D5000BB27F00DB11D639FAA27F00DB11DAA1F6F
:101D6000649F6627B00DA11D661F829F2227B00DBC
:101D7000A11D621F739FB00DA11D621F839FA00D47
:101D8000611D221F749F3327A00D611D231F849F97
:101D9000600D211D822F762F6A2F11249F575040EE
:101DA0008AF0E1F088234AF0EE0FFF1FBB1F661F89
:101DB000771F881F91505040A9F79E3F510570F042
:101DC00060CFAACF5F3FECF3983EDCF38695779522
:101DD0006795B795F795E7959F5FC1F7FE2B880F3D
:101DE000911D9695879597F90895991B79E004C000
:101DF000991F961708F0961B881F7A95C9F780954A
:101E00000895AA1BBB1B51E107C0AA1FBB1FA61741
:101E1000B70710F0A61BB70B881F991F5A95A9F793
:101E200080959095BC01CD01089597FB072E16F47F
:101E3000009407D077FD09D00E94010F07FC05D060
:101E40003EF4909581959F4F0895709561957F4FD1
:101E50000895A1E21A2EAA1BBB1BFD010DC0AA1FEB
:101E6000BB1FEE1FFF1FA217B307E407F50720F003
:101E7000A21BB30BE40BF50B661F771F881F991F7E
:101E80001A9469F760957095809590959B01AC01C7
:101E9000BD01CF010895EE0FFF1F0590F491E02DD5
:061EA0000994F894FFCF45
:101EA600000011032000556E61626C6520746F207E
:101EB600696E697469616C697A65204C334744328E
:101EC6003000564C36313830585F313A20002054B5
:101ED600494D454F5554004C33474432305F783AAC
:101EE60020002C20004C33474432305F793A2000E2
:101EF6004C33474432305F7A3A20000000000078C5
:101F0600020B041E024B0230026D0200000000B3F9
:101F16000586055B056305760585050000FD007FE2
:041F26000054000063
:00000001FF
