:100000000C945D000C9485000C9485000C94850084
:100010000C9485000C9485000C9485000C9485004C
:100020000C9485000C9485000C9485000C9485003C
:100030000C9485000C9485000C9485000C9485002C
:100040000C9449070C9485000C943E090C9481098A
:100050000C9485000C9485000C9485000C9485000C
:100060000C9485000C94850000000007000201003C
:100070000003040600000000000000000102040864
:100080001020408001020408102001020408102002
:10009000040404040404040402020202020203032E
:1000A0000303030300000000250028002B000000CC
:1000B0000000240027002A003D0A11241FBECFEFB4
:1000C000D8E0DEBFCDBF11E0A0E0B1E0E6E1FEE1A7
:1000D00002C005900D92AE32B107D9F712E0AEE240
:1000E000B1E001C01D92A337B107E1F710E0CAEB00
:1000F000D0E004C02297FE010E94F60EC83BD10753
:10010000C9F70E94900C0C949D0C0C940000883050
:10011000910599F08930910591F0079701F561E01B
:1001200088E00E94700861E089E00E94700861E048
:100130008AE00E94700860E00FC060E001C061E0EA
:1001400088E00E94700860E089E00E94700860E02A
:100150008AE00E94700861E08BE00E94700880E0F5
:100160000C94F1074F925F926F927F928F929F92C1
:10017000AF92BF92CF92DF92EF92FF920F931F93B5
:100180004A015B01280139018130910509F472C0EF
:100190008230910509F4DFC0892B09F04CC10E941F
:1001A000930760937E0170937F0180938001909309
:1001B00081012DEC3CEC4CE950E4C501B4010E94F6
:1001C000580E26E636E341EE54E40E94A00C2DECD6
:1001D0003CEC4CE151E40E94580E20E030E045E256
:1001E00054E40E94090D609382017093830180930F
:1001F0008401909385012DEC3CEC4CE950E4C30163
:10020000B2010E94580E20E030E048EE54E40E9413
:10021000A00C2DEC3CEC4CE151E40E94580E20E087
:1002200030E045E254E40E94090D6093860170932A
:10023000870180938801909389012DEC3CEC4CE977
:1002400050E4C701B6010E94580E2DEC3CEC4CE185
:1002500051E40E94580E20E030E045E254E40E9450
:10026000090D60938A0170938B0180938C019093A8
:100270008D01E1C00E94930760936E0170936F013E
:1002800080937001909371012DEC3CEC4CE950E4AB
:10029000C501B4010E94580E26E636E341EE54E44F
:1002A0000E94A00C2DEC3CEC4CE151E40E94580E55
:1002B00020E030E045E254E40E94090D60937201B1
:1002C0007093730180937401909375012DEC3CEC55
:1002D0004CE950E4C301B2010E94580E20E030E026
:1002E00048EE54E40E94A00C2DEC3CEC4CE151E4AF
:1002F0000E94580E20E030E045E254E40E94090DCF
:1003000060937601709377018093780190937901DF
:100310002DEC3CEC4CE950E4C701B6010E94580EAC
:1003200020E030E44EEC54E40E94A00C2DEC3CECB8
:100330004CE151E40E94580E20E030E045E254E4E4
:100340000E94090D60937A0170937B0180937C0178
:1003500090937D0170C00E94930760935E0170933B
:100360005F0180936001909361012DEC3CEC4CE9BE
:1003700050E4C501B4010E94580E26E636E341EE72
:1003800054E40E94A00C2DEC3CEC4CE151E40E94A2
:10039000580E20E030E045E254E40E94090D6093DD
:1003A00062017093630180936401909365012DEC69
:1003B0003CEC4CE950E4C301B2010E94580E20E02D
:1003C00030E048EE54E40E94A00C2DEC3CEC4CE1F3
:1003D00051E40E94580E20E030E045E254E40E94CF
:1003E000090D609366017093670180936801909393
:1003F00069012DEC3CEC4CE950E4C701B6010E94C8
:10040000580E20E030E44EEC54E40E94A00C2DEC99
:100410003CEC4CE151E40E94580E20E030E045E213
:1004200054E40E94090D60936A0170936B018093FC
:100430006C0190936D011F910F91FF90EF90DF90F1
:10044000CF90BF90AF909F908F907F906F905F9074
:100450004F9008958F929F92AF92BF92CF92DF926A
:10046000EF92FF920F931F93CF93DF93CDB7DEB739
:10047000FA016017710782079307A8F40A151B0594
:100480002C053D0560F5A6019501261B370B480B91
:10049000590BD701AA0FBB1FAA0FBB1FAE0FBF1F5F
:1004A000A80DB91D30C00A151B052C053D05A8F582
:1004B000A616B706C806D90680F55B016C01A01A1E
:1004C000B10AC20AD30AA6019501D401AA0FBB1F23
:1004D000AA0FBB1FAE0DBF1DAE0FBF1F14C0A616C7
:1004E000B706C806D906C8F4A90198012A193B091C
:1004F0004C095D09DF01AA0FBB1FAA0FBB1FA80D86
:10050000B91DAE0DBF1D0E94BF0E26E030E040E0D9
:1005100050E00E94C70EC90102C080E090E0DF9168
:10052000CF911F910F91FF90EF90DF90CF90BF90F0
:10053000AF909F908F9008954F925F926F927F92AD
:10054000AF92BF92CF92DF92EF92FF920F931F93E1
:10055000CF93DF93CDB7DEB728970FB6F894DEBF01
:100560000FBECDBF69837A838B839C8329013A01B7
:10057000ED82FE820F8318876E157F058007910735
:1005800048F5298D3A8D4B8D5C8DE216F3060407F4
:10059000150708F056C020E030E040E850E4C601FE
:1005A000B5010E94580E9B01AC01C301B2010E942B
:1005B000A10C2D8D3E8D4F8D58A10E94A10C2B01B9
:1005C0003C01698D7A8D8B8D9C8D29813A814B817F
:1005D0005C8162C08D819E81AF81B885298D3A8D05
:1005E0004B8D5C8D82179307A407B50708F06AC08E
:1005F00089819A81AB81BC81281739074A075B073B
:1006000008F060C020E030E040E850E46D8D7E8D61
:100610008F8D98A10E94580E9B01AC01C601B501B7
:100620000E94A10CA30192010E94A10C2B013C018C
:1006300069817A818B819C812D813E814F81588592
:100640002BC0898D9A8DAB8DBC8D29813A814B81D0
:100650005C8182179307A407B507A0F520E030E07E
:1006600040E850E4C301B2010E94580E9B01AC0166
:100670006D8D7E8D8F8D98A10E94A10CA601950194
:100680000E94A10C2B013C016D817E818F81988598
:10069000298D3A8D4B8D5C8D621B730B840B950BF2
:1006A0000E94A20D9B01AC01C301B2010E94580E31
:1006B00020E030E040EC50E40E94090D0E94710DF2
:1006C000CB0102C080E090E028960FB6F894DEBF20
:1006D0000FBECDBFDF91CF911F910F91FF90EF9093
:1006E000DF90CF90BF90AF907F906F905F904F90D2
:1006F000089561E088E00E94370861E089E00E9487
:10070000370861E08AE00E94370861E08BE00E94D0
:10071000370840E052EC61E070E089EC91E00C9425
:10072000BC092F923F924F925F926F927F928F926D
:100730009F92AF92BF92CF92DF92EF92FF920F9370
:100740001F93CF93DF93CDB7DEB7C254D1090FB655
:10075000F894DEBF0FBECDBF86E0E7E0F1E0DE013A
:10076000119601900D928A95E1F787E090E00E9442
:100770008700BC01882777FD8095982F0E94A40DE3
:100780006B017C016093B2017093B3018093B4015B
:100790009093B5012AE939E949E55FE36091A60143
:1007A0007091A7018091A8019091A9010E94580E13
:1007B0002B013C0128E939E949E15EE3C701B601B3
:1007C0000E94580E9B01AC01C301B2010E94A10C12
:1007D00060939A0170939B0180939C0190939D017B
:1007E0006093A6017093A7018093A8019093A9013B
:1007F00088E090E00E948700BC01882777FD809503
:10080000982F0E94A40D6B017C016093B601709338
:10081000B7018093B8019093B9012AE939E949E514
:100820005FE36091AA017091AB018091AC0190915E
:10083000AD010E94580E2B013C0128E939E949E13C
:100840005EE3C701B6010E94580E9B01AC01C301D3
:10085000B2010E94A10C60939E0170939F0180934E
:10086000A0019093A1016093AA017093AB018093C2
:10087000AC019093AD0189E090E00E948700BC013B
:10088000882777FD8095982F0E94A40D6B017C012D
:100890006093BA017093BB018093BC019093BD013A
:1008A0002AE939E949E55FE36091AE017091AF0152
:1008B0008091B0019091B1010E94580E2B013C0132
:1008C00028E939E949E15EE3C701B6010E94580E03
:1008D0009B01AC01C301B2010E94A10C6B017C0120
:1008E0006093A2017093A3018093A4019093A5014A
:1008F0006093AE017093AF018093B0019093B1010A
:1009000000919E0110919F012091A0013091A101C1
:1009100040919A0150919B0160919C0170919D01C1
:10092000E091BE01F091BF01EE0FFF1F81E090E06A
:100930008C0F9D1FE80FF91F808191810E94B200EA
:100940008091BE019091BF010196833091052CF4F6
:100950009093BF018093BE0104C01092BF0110921A
:10096000BE0180917E0190917F01A0918001B091A4
:10097000810189879A87AB87BC8780934E019093CA
:100980004F01A0935001B0935101609162017091A9
:10099000630180916401909165010E94710D6D87E2
:1009A0007E878F87988B30905E0120905F019091B9
:1009B00060019F83A0916101A8876091720170918D
:1009C000730180917401909175010E94710D698B82
:1009D0007A8B8B8B9C8B40906E0150906F01609056
:1009E0007001709071018091820190918301A091BA
:1009F0008401B091850189AF9AAFABAFBCAFBC01A8
:100A0000CD010E94710D6D8B7E8B8F8B988F8D84A5
:100A10009E84A32CB22CCF80D884E988FA889301D5
:100A200082014D895E8969857A858B859C850E94C6
:100A30002A02BC01882777FD8095982F0E94A40D7B
:100A40006DA77EA78FA798AB609352017093530157
:100A500080935401909355016091660170916701F4
:100A600080916801909169010E94710D698F7A8F60
:100A70008B8F9C8F609176017091770180917801C6
:100A8000909179010E94710D6D8F7E8F8F8F98A349
:100A90006091860170918701809188019091890110
:100AA0000E94710D69A37AA38BA39CA3898C9A8C55
:100AB000ED8CFE8C9301820149A15AA169857A854A
:100AC0008B859C850E942A02BC01882777FD809532
:100AD000982F0E94A40D69AB7AAB8BAB9CAB609353
:100AE000560170935701809358019093590160917A
:100AF0006A0170916B0180916C0190916D010E946F
:100B0000710D6DA37EA38FA398A760917A01709158
:100B10007B0180917C0190917D010E94710D69A7FC
:100B20007AA78BA79CA760918A0170918B01809115
:100B30008C0190918D010E94710D21966CAF7DAF5B
:100B40008EAF9FAF21978DA09EA0E9A4FAA4930138
:100B500082014DAD5EAD69857A858B859C850E944D
:100B60002A02BC01882777FD8095982F0E94A40D4A
:100B70006DAB7EAB8FAB98AF60935A0170935B0106
:100B800080935C0190935D0140923E0150923F0141
:100B900060924001709241018DA59EA5AFA5B8A9B4
:100BA0008093420190934301A0934401B093450187
:100BB00089A99AA9ABA9BCA9809346019093470142
:100BC000A0934801B09349018DA99EA9AFA9B8ADE2
:100BD00080934A0190934B01A0934C01B0934D0137
:100BE00030922E0120922F01C0923001D09231011B
:100BF0008D849E84E988FA88930182014D895E89FB
:100C0000632D722DC6010E942A02BC01882777FD40
:100C10008095982F0E94A40D6D87798B8D8B2296DD
:100C20009FAF2297472F382F292F862F942FA32F3E
:100C3000B22F8093320190933301A0933401B0938B
:100C40003501898C9A8CED8CFE8C9301820149A12F
:100C50005AA1632D722DC6010E942A02BC01882769
:100C600077FD8095982F0E94A40D698F7D8F89A3B1
:100C700023969FAF2397472F382F292F862F942F06
:100C8000A32FB22F8093360190933701A0933801A0
:100C9000B09339018DA09EA0E9A4FAA4930182012A
:100CA0004DAD5EAD632D722DC6010E942A02BC01BE
:100CB000882777FD8095982F0E94A40D6DA379A7B2
:100CC000982E892E472F9401862F942FA32FB22F71
:100CD00080933A0190933B01A0933C01B0933D0176
:100CE0002296BFAD2297BF932D892F9339893F93C9
:100CF0008D858F9398859F93AF81AF932F923F926D
:100D0000ADA4BEA4CFA4D8A883017201A601950109
:100D100069857A858B859C850E949C020FB6F89424
:100D2000DEBF0FBECDBFBC01882777FD8095982F11
:100D30000E94A40D6093960170939701809398018F
:100D40009093990123963FAD23973F9389A18F9369
:100D50009D8D9F93A98DAF93B885BF932F812F93BE
:100D60002F923F92A9A8BAA8CBA8DCA8A60195010A
:100D700069857A858B859C850E949C020FB6F894C4
:100D8000DEBF0FBECDBFBC01882777FD8095982FB1
:100D90000E94A40D6093920170939301809394013B
:100DA000909395018F929F92B9A5BF932DA12F93F8
:100DB00038853F938F818F932F923F92ADA8BEA825
:100DC000CFA8D8ACA601950169857A858B859C85CD
:100DD0000E949C020FB6F894DEBF0FBECDBFBC01CF
:100DE000882777FD8095982F0E94A40D60938E012F
:100DF00070938F01809390019093910122E030E0F5
:100E000049AD5AAD6BAD7CAD89EC91E00E947C0C94
:100E10006DE071E089EC91E00E94D10A40914201BD
:100E200050914301609144017091450122E030E00E
:100E300089EC91E00E947C0C6DE071E089EC91E01E
:100E40000E94D10A409196015091970160919801BA
:100E50007091990122E030E089EC91E0CE5BDF4FA8
:100E60000FB6F894DEBF0FBECDBFDF91CF911F91BB
:100E70000F91FF90EF90DF90CF90BF90AF909F9039
:100E80008F907F906F905F904F903F902F900C9439
:100E90007E0C1F920F920FB60F9211242F933F9347
:100EA0008F939F93AF93BF938091C1019091C201A3
:100EB000A091C301B091C4013091C00123E0230F80
:100EC0002D3720F40196A11DB11D05C026E8230F82
:100ED0000296A11DB11D2093C0018093C101909382
:100EE000C201A093C301B093C4018091C501909148
:100EF000C601A091C701B091C8010196A11DB11D05
:100F00008093C5019093C601A093C701B093C80117
:100F1000BF91AF919F918F913F912F910F900FBEF5
:100F20000F901F9018953FB7F8948091C50190914C
:100F3000C601A091C701B091C80126B5A89B05C004
:100F40002F3F19F00196A11DB11D3FBF6627782FD5
:100F5000892F9A2F620F711D811D911D42E0660F2E
:100F6000771F881F991F4A95D1F70895789484B503
:100F7000826084BD84B5816084BD85B5826085BD95
:100F800085B5816085BDEEE6F0E08081816080837B
:100F9000E1E8F0E01082808182608083808181605E
:100FA0008083E0E8F0E0808181608083E1EBF0E025
:100FB000808184608083E0EBF0E0808181608083C9
:100FC000EAE7F0E0808184608083808182608083B2
:100FD0008081816080838081806880831092C100DD
:100FE00008958E3008F08E5087702091060190E4AD
:100FF000299F90011124822B80937C0080917A009C
:10100000806480937A0080917A0086FDFCCF809185
:1010100078002091790090E0922B0895833081F040
:1010200028F4813099F08230A1F008958630A9F03B
:101030008730B9F08430D1F4809180008F7D03C077
:10104000809180008F7780938000089584B58F779A
:1010500002C084B58F7D84BD08958091B0008F77E4
:1010600003C08091B0008F7D8093B0000895CF932E
:10107000DF9390E0FC01E458FF4F2491FC01E0571E
:10108000FF4F8491882349F190E0880F991FFC015C
:10109000E255FF4FA591B4918C559F4FFC01C5912E
:1010A000D4919FB7611108C0F8948C912095822348
:1010B0008C93888182230AC0623051F4F8948C9119
:1010C000322F309583238C938881822B888304C0B0
:1010D000F8948C91822B8C939FBFDF91CF910895D0
:1010E0000F931F93CF93DF931F92CDB7DEB7282FB7
:1010F00030E0F901E859FF4F8491F901E458FF4FBE
:101100001491F901E057FF4F04910023C9F088239F
:1011100021F069830E940E086981E02FF0E0EE0F54
:10112000FF1FEC55FF4FA591B4919FB7F8948C9198
:10113000611103C01095812301C0812B8C939FBF47
:101140000F90DF91CF911F910F910895FC0124859D
:101150003585F901E05CFF4F80819181F901EE5BFB
:10116000FF4F20813181821B930B8F739927089544
:10117000FC0184859585FC01E05CFF4F4081518135
:10118000FC01EE5BFF4F208131814217530741F094
:101190000190F081E02DE80FF91F808190E0089523
:1011A0008FEF9FEF0895FC0184859585FC01E05C3D
:1011B000FF4F40815181FC01EE5BFF4F2081318167
:1011C0004217530779F0A081B181A80FB91F8C9104
:1011D000208131812F5F3F4F2F733327318320834D
:1011E00090E008958FEF9FEF0895FC0181A188237F
:1011F00029F0A489B5898C9186FFFBCF11A20895AF
:10120000CF93DF93FC0126853785D901A05CBF4FC2
:101210008D919C91119701968F739927E901CE5B6F
:10122000DF4F4881598184179507D9F30D90BC9100
:10123000A02DA20FB31F6C93A685B785A05CBF4FEE
:1012400011969C938E93A689B7892C9181E090E0AA
:10125000078C02C0880F991F0A94E2F7282B2C9361
:1012600081E081A30488F589E02D808180648083FA
:1012700081E090E0DF91CF91089508951F920F9241
:101280000FB60F9211242F933F934F938F939F93F9
:10129000EF93FF938091C00082FD1CC04091C60077
:1012A00080916F029091700201968F73992720911F
:1012B0007102309172028217930771F0E0916F0210
:1012C000F0917002E15DFD4F408390937002809336
:1012D0006F0202C08091C600FF91EF919F918F91A4
:1012E0004F913F912F910F900FBE0F901F90189527
:1012F00089EC91E00E94A608892B11F00C943D091D
:1013000008951F920F920FB60F9211242F933F93BF
:101310008F939F93EF93FF9320912B0230912C0298
:1013200080912D0290912E022817390731F4809177
:10133000C1008F7D8093C10014C0E0912D02F09117
:101340002E02E551FE4F208180912D0290912E02B8
:1013500001968F73992790932E0280932D022093EC
:10136000C600FF91EF919F918F913F912F910F9028
:101370000FBE0F901F901895CF92DF92EF92FF92C1
:10138000CF93DF93EC016A017B01411581EE580791
:1013900061057105F9F0EC89FD8981E090E008A014
:1013A00002C0880F991F0A94E2F7808360E079E019
:1013B0008DE390E0A70196010E94C70E21503109EC
:1013C000410951095695479537952795211580E193
:1013D000380798F0EC89FD89108260E874E88EE1A6
:1013E00090E0A70196010E94C70E215031094109E2
:1013F00051095695479537952795E889F98930839E
:10140000EA89FB89208319A2EE89FF89408181E066
:1014100090E09C010C8C02C0220F331F0A94E2F76B
:10142000422B4083EE89FF8940819C010D8C02C0D4
:10143000220F331F0A94E2F7422B4083EE89FF8983
:1014400040819C010E8C02C0220F331F0A94E2F7E8
:10145000422B4083EE89FF8920810F8C02C0880FC8
:10146000991F0A94E2F7809582238083DF91CF91C0
:10147000FF90EF90DF90CF9008951092CC011092E2
:10148000CB0188EE93E0A0E0B0E08093CD01909393
:10149000CE01A093CF01B093D00183E191E090936E
:1014A000CA018093C9018FE292E09093D6018093A4
:1014B000D5018BEE91E09093D8018093D70185EC14
:1014C00090E09093DA018093D90184EC90E09093BE
:1014D000DC018093DB0180EC90E09093DE0180934F
:1014E000DD0181EC90E09093E0018093DF0182ECDC
:1014F00090E09093E2018093E10186EC90E090937C
:10150000E4018093E30184E08093E50183E080932C
:10151000E60187E08093E70185E08093E80181E0C0
:101520008093E9010895CF92DF92EF92FF920F939B
:101530001F93CF93DF936C017A01EB01E60EF71E48
:1015400000E010E0CE15DF0561F06991D601ED9164
:10155000FC910190F081E02DC6010995080F191F3B
:10156000F1CFC801DF91CF911F910F91FF90EF90C4
:10157000DF90CF9008956115710581F0DB010D902A
:101580000020E9F7AD0141505109461B570BDC0122
:10159000ED91FC910280F381E02D099480E090E0D0
:1015A00008950C94BB0ADC01ED91FC910190F0814F
:1015B000E02D09940F931F93CF93DF93EC016DE01F
:1015C0000E94D30A8C016AE0CE010E94D30A800FE8
:1015D000911FDF91CF911F910F9108958F929F924C
:1015E000AF92BF92CF92DF92EF92FF920F931F9331
:1015F000CF93DF93CDB7DEB7A1970FB6F894DEBFD8
:101600000FBECDBF7C01C42EE52FCB01D22E19A277
:1016100021E02D1510F02AE0D22E8E010F5D1F4F14
:101620008D2C912CA12CB12C6C2D7E2FA501940119
:101630000E94C70E8C2DD29E8019112401501109D1
:101640008A3014F4805D01C0895CF8018083211523
:1016500031054105510521F0C22EE32FCA01E4CF27
:10166000B801C7010E94BB0AA1960FB6F894DEBF6D
:101670000FBECDBFDF91CF911F910F91FF90EF90E3
:10168000DF90CF90BF90AF909F908F900895CF92B2
:10169000DF92EF92FF920F931F93CF93DF93EC01B2
:1016A0006A017B012115310579F4E881F981019006
:1016B000F081E02D642FDF91CF911F910F91FF906A
:1016C000EF90DF90CF9009942A303105E9F477FF4D
:1016D0001AC06DE20E94D30A8C0144275527BA0133
:1016E0004C195D096E097F092AE0CE010E94EE0ABD
:1016F000800F911FDF91CF911F910F91FF90EF907D
:10170000DF90CF9008952AE0B701A601CE01DF91C6
:10171000CF911F910F91FF90EF90DF90CF900C949D
:10172000EE0A4F925F926F927F928F929F92AF924A
:10173000BF92CF92DF92EF92FF920F931F93CF93BE
:10174000DF93EC016A017B01B22E9A01AB01C70164
:10175000B6010E94BB0E882319F06FE171E027C02B
:1017600026013701E89477F82FEF3FEF4FE75FE767
:10177000C301B2010E94BB0E81110DC02FEF3FEFDC
:101780004FE75FE7C301B2010E94050D18161CF474
:1017900063E271E00CC02FEF3FEF4FE75FE4C7015A
:1017A000B6010E94540E1816ACF467E271E0CE0147
:1017B000DF91CF911F910F91FF90EF90DF90CF902D
:1017C000BF90AF909F908F907F906F905F904F9061
:1017D0000C94BB0A2FEF3FEF4FE75FECC701B60158
:1017E0000E94050D87FDE1CF20E030E0A901C7018F
:1017F000B6010E94050D87FF0AC06DE2CE010E946E
:10180000D30A8C01F7FAF094F7F8F09402C000E0E4
:1018100010E0A12C60E070E080E09FE3AB1441F0A9
:1018200020E030E040E251E40E94090DA394F6CF9D
:101830009B01AC01C701B6010E94A10C6B017C01A8
:101840000E94760D2B013C010E94A20D9B01AC0170
:10185000C701B6010E94A00C6B017C012AE0B30114
:10186000A201CE010E94EE0A080F191FBB2039F019
:101870006BE271E0CE010E94BB0A080F191F7B2C9E
:10188000772041F120E030E040E251E4C701B601A9
:101890000E94580E6B017C010E94710D4B01AA241D
:1018A00097FCA094BA2C2AE030E0B501A401CE0147
:1018B0000E94470B080F191FC501B4010E94A40D17
:1018C0009B01AC01C701B6010E94A00C6B017C0119
:1018D0007A94D6CFC801DF91CF911F910F91FF90DD
:1018E000EF90DF90CF90BF90AF909F908F907F90C0
:1018F0006F905F904F9008950C94910B0F931F93EE
:10190000CF93DF93EC010E94910B8C01CE010E94DA
:10191000DA0A800F911FDF91CF911F910F910895E7
:101920000E94B6070E947903C8E7D9E00E9491039C
:101930002097E1F30E947809F9CFF8940C94090FED
:101940005058BB27AA270ED075C166D130F06BD195
:1019500020F031F49F3F11F41EF45BC10EF4E095CA
:10196000E7FB51C1E92F77D180F3BA1762077307FC
:101970008407950718F071F49EF58FC10EF4E09579
:101980000B2EBA2FA02D0B01B90190010C01CA0139
:10199000A0011124FF27591B99F0593F50F4503EE4
:1019A00068F11A16F040A22F232F342F4427585FD6
:1019B000F3CF469537952795A795F0405395C9F7EE
:1019C0007EF41F16BA0B620B730B840BBAF09150A6
:1019D000A1F0FF0FBB1F661F771F881FC2F70EC045
:1019E000BA0F621F731F841F48F487957795679518
:1019F000B795F7959E3F08F0B3CF9395880F08F001
:101A00009927EE0F979587950895D9D008F481E02E
:101A100008950CD00FC107D140F0FED030F021F472
:101A20005F3F19F0F0C0511139C1F3C014D198F3E0
:101A30009923C9F35523B1F3951B550BBB27AA274F
:101A400062177307840738F09F5F5F4F220F331FC1
:101A5000441FAA1FA9F333D00E2E3AF0E0E830D08D
:101A600091505040E695001CCAF729D0FE2F27D090
:101A7000660F771F881FBB1F261737074807AB075E
:101A8000B0E809F0BB0B802DBF01FF2793585F4FD3
:101A90002AF09E3F510568F0B6C000C15F3FECF3ED
:101AA000983EDCF3869577956795B795F7959F5F98
:101AB000C9F7880F911D9695879597F90895E1E0EC
:101AC000660F771F881FBB1F621773078407BA074B
:101AD00020F0621B730B840BBA0BEE1F88F7E095A6
:101AE000089504D06894B111D9C00895BCD088F08D
:101AF0009F5790F0B92F9927B751A0F0D1F0660FFA
:101B0000771F881F991F1AF0BA95C9F712C0B13014
:101B100081F0C3D0B1E00895C0C0672F782F882727
:101B2000B85F39F0B93FCCF3869577956795B39553
:101B3000D9F73EF490958095709561957F4F8F4FC2
:101B40009F4F0895E89409C097FB3EF490958095C7
:101B5000709561957F4F8F4F9F4F9923A9F0F92F73
:101B600096E9BB279395F695879577956795B795F1
:101B7000F111F8CFFAF4BB0F11F460FF1BC06F5FD7
:101B80007F4F8F4F9F4F16C0882311F096E911C0E9
:101B9000772321F09EE8872F762F05C0662371F00A
:101BA00096E8862F70E060E02AF09A95660F771F1E
:101BB000881FDAF7880F9695879597F90895990FFA
:101BC0000008550FAA0BE0E8FEEF16161706E80707
:101BD000F907C0F012161306E407F50798F0621B28
:101BE000730B840B950B39F40A2661F0232B242BFD
:101BF000252B21F408950A2609F4A140A6958FEF1C
:101C0000811D811D089597F99F6780E870E060E06D
:101C100008959FEF80EC089500240A941616170685
:101C200018060906089500240A94121613061406CD
:101C300005060895092E0394000C11F4882352F030
:101C4000BB0F40F4BF2B11F460FF04C06F5F7F4FE8
:101C50008F4F9F4F089557FD9058440F551F59F0CF
:101C60005F3F71F04795880F97FB991F61F09F3F89
:101C700079F087950895121613061406551FF2CFB2
:101C80004695F1DF08C0161617061806991FF1CF02
:101C900086957105610508940895E894BB27662729
:101CA0007727CB0197F908958ADF08F48FEF08951D
:101CB0000BD0C0CFB1DF28F0B6DF18F0952309F0C4
:101CC000A2CFA7CF1124EACFC6DFA0F3959FD1F30F
:101CD000950F50E0551F629FF001729FBB27F00DDA
:101CE000B11D639FAA27F00DB11DAA1F649F66272F
:101CF000B00DA11D661F829F2227B00DA11D621F7E
:101D0000739FB00DA11D621F839FA00D611D221F37
:101D1000749F3327A00D611D231F849F600D211D1B
:101D2000822F762F6A2F11249F5750408AF0E1F0BE
:101D300088234AF0EE0FFF1FBB1F661F771F881F07
:101D400091505040A9F79E3F510570F05CCFA6CF4F
:101D50005F3FECF3983EDCF3869577956795B795F2
:101D6000F795E7959F5FC1F7FE2B880F911D96951C
:101D7000879597F9089523DF880B990B0895B7FF8E
:101D80000C94E90E0E94E90E821B930B0895A1E2C8
:101D90001A2EAA1BBB1BFD010DC0AA1FBB1FEE1FE5
:101DA000FF1FA217B307E407F50720F0A21BB30B30
:101DB000E40BF50B661F771F881F991F1A9469F7AC
:101DC00060957095809590959B01AC01BD01CF0108
:101DD00008950E94FA0EA59F900DB49F900DA49FA8
:101DE000800D911D11240895EE0FFF1F0590F491B1
:101DF000E02D0994A29FB001B39FC001A39F700D75
:101E0000811D1124911DB29F700D811D1124911D02
:061E10000895F894FFCFD5
:101E16000000730220000100000100020020000003
:101E26000000000009930AA608D308B808F5086E52
:0E1E3600616E00696E66006F7666002E000019
:00000001FF
