:100000000C945D000C9485000C9485000C94850084
:100010000C9485000C9485000C9485000C9485004C
:100020000C9485000C9485000C9485000C9485003C
:100030000C9485000C9485000C9485000C9485002C
:100040000C945F020C9485000C943D040C94800485
:100050000C9485000C9485000C9485000C9485000C
:100060000C9485000C94850000000007000201003C
:100070000003040600000000000000000102040864
:100080001020408001020408102001020408102002
:10009000040404040404040402020202020203032E
:1000A0000303030300000000250028002B000000CC
:1000B0000000240027002A003C0511241FBECFEFBA
:1000C000D8E0DEBFCDBF11E0A0E0B1E0E8E1FEE0A6
:1000D00002C005900D92A435B107D9F712E0A4E54E
:1000E000B1E001C01D92A732B107E1F710E0CAEB01
:1000F000D0E004C02297FE010E94F706C83BD1075A
:10010000C9F70E94B0060C94BD060C94000088301C
:10011000910599F08930910591F0079701F561E01B
:1001200088E00E946F0361E089E00E946F0361E054
:100130008AE00E946F0360E00FC060E001C061E0F0
:1001400088E00E946F0360E089E00E946F0360E036
:100150008AE00E946F0361E08BE00E946F0380E001
:100160000C94F0028130910551F18230910509F42F
:1001700049C0892B09F068C00E94A90260936A01F6
:1001800070936B0180936C0190936D0187E090E018
:100190000E94870090936F0180936E0188E090E049
:1001A0000E948700909371018093700189E090E034
:1001B0000E948700909373018093720108950E94BA
:1001C000A902609360017093610180936201909332
:1001D000630187E090E00E9487009093650180931F
:1001E000640188E090E00E9487009093670180930B
:1001F000660189E090E00E948700909369018093F6
:10020000680108950E94A9026093560170935701F6
:10021000809358019093590187E090E00E948700F5
:1002200090935B0180935A0188E090E00E948700E0
:1002300090935D0180935C0189E090E00E948700CB
:1002400090935F0180935E0108958F929F92AF9289
:10025000BF92CF92DF92EF92FF920F931F93CF93B3
:10026000DF93CDB7DEB7FA016017710782079307F6
:10027000A8F40A151B052C053D0560F5A60195019E
:10028000261B370B480B590BD701AA0FBB1FAA0F10
:10029000BB1FAE0FBF1FA80DB91D30C00A151B052F
:1002A0002C053D05A8F5A616B706C806D90680F5A3
:1002B0005B016C01A01AB10AC20AD30AA60195011A
:1002C000D401AA0FBB1FAA0FBB1FAE0DBF1DAE0FDF
:1002D000BF1F14C0A616B706C806D906C8F4A901E0
:1002E00098012A193B094C095D09DF01AA0FBB1FC0
:1002F000AA0FBB1FA80DB91DAE0DBF1D0E94C006E1
:1003000026E030E040E050E00E94C806C90102C08B
:1003100080E090E0DF91CF911F910F91FF90EF90DF
:10032000DF90CF90BF90AF909F908F90089561E045
:1003300088E00E94360361E089E00E94360361E0B4
:100340008AE00E94360361E08BE00E94360340E8B9
:1003500055E260E070E08DE791E00C94BB048F9271
:100360009F92AF92BF92CF92DF92EF92FF920F9344
:100370001F93CF93DF9300D000D000D0CDB7DEB76E
:1003800086E0E7E0F1E0DE01119601900D928A959A
:10039000E1F7E0915401F0915501EE0FFF1F81E06C
:1003A00090E08C0F9D1FE80FF91F808191810E94C2
:1003B000B2008091540190915501019683309105CE
:1003C0002CF4909355018093540104C01092550170
:1003D000109254016DE071E08DE791E00E94D0052C
:1003E00060916E0170916F014AE050E08DE791E0FD
:1003F0000E9490066DE171E08DE791E00E94D005CA
:1004000060916401709165014AE050E08DE791E0F0
:100410000E9490066DE271E08DE791E00E94D005A8
:1004200060915A0170915B014AE050E08DE791E0E4
:100430000E9490066DE371E08DE791E00E94D00587
:1004400080905A0190905B01A0905601B0905701A6
:10045000C0905801D0905901E0906401F09065017E
:10046000009160011091610120916201309163015E
:1004700040916E0150916F0160916A0170916B0122
:1004800080916C0190916D010E9425014AE050E03D
:10049000BC018DE791E026960FB6F894DEBF0FBE43
:1004A000CDBFDF91CF911F910F91FF90EF90DF9023
:1004B000CF90BF90AF909F908F900C9498061F9212
:1004C0000F920FB60F9211242F933F938F939F9308
:1004D000AF93BF938091750190917601A0917701C0
:1004E000B09178013091740123E0230F2D3720F46F
:1004F0000196A11DB11D05C026E8230F0296A11D7E
:10050000B11D209374018093750190937601A0939F
:100510007701B09378018091790190917A01A0914F
:100520007B01B0917C010196A11DB11D80937901E1
:1005300090937A01A0937B01B0937C01BF91AF911E
:100540009F918F913F912F910F900FBE0F901F9011
:1005500018952FB7F894609175017091760180918C
:100560007701909178012FBF0895789484B58260C7
:1005700084BD84B5816084BD85B5826085BD85B547
:10058000816085BDEEE6F0E0808181608083E1E8F6
:10059000F0E010828081826080838081816080832E
:1005A000E0E8F0E0808181608083E1EBF0E0808131
:1005B00084608083E0EBF0E0808181608083EAE703
:1005C000F0E080818460808380818260808380818C
:1005D000816080838081806880831092C10008954B
:1005E0008E3008F08E5087702091060190E4299F8C
:1005F00090011124822B80937C0080917A0080648A
:1006000080937A0080917A0086FDFCCF80917800FB
:100610002091790090E0922B0895833081F028F4A6
:10062000813099F08230A1F008958630A9F08730AA
:10063000B9F08430D1F4809180008F7D03C0809127
:1006400080008F7780938000089584B58F7702C0F3
:1006500084B58F7D84BD08958091B0008F7703C0ED
:100660008091B0008F7D8093B0000895CF93DF9389
:1006700090E0FC01E458FF4F2491FC01E057FF4F4C
:100680008491882349F190E0880F991FFC01E2557D
:10069000FF4FA591B4918C559F4FFC01C591D4910A
:1006A0009FB7611108C0F8948C91209582238C9398
:1006B000888182230AC0623051F4F8948C91322FE1
:1006C000309583238C938881822B888304C0F8948F
:1006D0008C91822B8C939FBFDF91CF9108950F93C4
:1006E0001F93CF93DF931F92CDB7DEB7282F30E053
:1006F000F901E859FF4F8491F901E458FF4F149133
:10070000F901E057FF4F04910023C9F0882321F03D
:1007100069830E940D036981E02FF0E0EE0FFF1F57
:10072000EC55FF4FA591B4919FB7F8948C9161114E
:1007300003C01095812301C0812B8C939FBF0F9024
:10074000DF91CF911F910F910895FC01248535858C
:10075000F901E05CFF4F80819181F901EE5BFF4F71
:1007600020813181821B930B8F7399270895FC019F
:1007700084859585FC01E05CFF4F40815181FC013F
:10078000EE5BFF4F208131814217530741F001900A
:10079000F081E02DE80FF91F808190E008958FEF40
:1007A0009FEF0895FC0184859585FC01E05CFF4F77
:1007B00040815181FC01EE5BFF4F20813181421766
:1007C000530779F0A081B181A80FB91F8C912081C6
:1007D00031812F5F3F4F2F7333273183208390E088
:1007E00008958FEF9FEF0895FC0181A1882329F0E0
:1007F000A489B5898C9186FFFBCF11A20895CF9370
:10080000DF93FC0126853785D901A05CBF4F8D9110
:100810009C91119701968F739927E901CE5BDF4F69
:100820004881598184179507D9F30D90BC91A02D6B
:10083000A20FB31F6C93A685B785A05CBF4F11961E
:100840009C938E93A689B7892C9181E090E0078CC8
:1008500002C0880F991F0A94E2F7282B2C9381E09D
:1008600081A30488F589E02D80818064808381E004
:1008700090E0DF91CF91089508951F920F920FB6E7
:100880000F9211242F933F934F938F939F93EF9346
:10089000FF938091C00082FD1CC04091C6008091F2
:1008A00023029091240201968F73992720912502AB
:1008B000309126028217930771F0E0912302F091A4
:1008C0002402ED51FE4F4083909324028093230233
:1008D00002C08091C600FF91EF919F918F914F913F
:1008E0003F912F910F900FBE0F901F9018958DE79D
:1008F00091E00E94A503892B11F00C943C0408950B
:100900001F920F920FB60F9211242F933F938F9344
:100910009F93EF93FF932091DF013091E00180914D
:10092000E1019091E2012817390731F48091C1006B
:100930008F7D8093C10014C0E091E101F091E2014C
:10094000E156FE4F20818091E1019091E2010196F4
:100950008F7399279093E2018093E1012093C60061
:10096000FF91EF919F918F913F912F910F900FBE2B
:100970000F901F901895CF92DF92EF92FF92CF9336
:10098000DF93EC016A017B01411581EE5807610597
:100990007105F9F0EC89FD8981E090E008A002C0C2
:1009A000880F991F0A94E2F7808360E079E08DE375
:1009B00090E0A70196010E94C80621503109410923
:1009C00051095695479537952795211580E13807A8
:1009D00098F0EC89FD89108260E874E88EE190E07F
:1009E000A70196010E94C806215031094109510909
:1009F0005695479537952795E889F9893083EA898F
:100A0000FB89208319A2EE89FF89408181E090E073
:100A10009C010C8C02C0220F331F0A94E2F7422B78
:100A20004083EE89FF8940819C010D8C02C0220F1A
:100A3000331F0A94E2F7422B4083EE89FF894081FD
:100A40009C010E8C02C0220F331F0A94E2F7422B46
:100A50004083EE89FF8920810F8C02C0880F991F87
:100A60000A94E2F7809582238083DF91CF91FF90F3
:100A7000EF90DF90CF9008951092800110927F0147
:100A800088EE93E0A0E0B0E0809381019093820132
:100A9000A0938301B093840187E491E090937E0159
:100AA00080937D0183EE91E090938A018093890188
:100AB0008FE991E090938C0180938B0185EC90E01D
:100AC00090938E0180938D0184EC90E0909390013F
:100AD00080938F0180EC90E090939201809391013C
:100AE00081EC90E0909394018093930182EC90E0EC
:100AF000909396018093950186EC90E090939801F5
:100B00008093970184E08093990183E080939A0118
:100B100087E080939B0185E080939C0181E0809336
:100B20009D010895CF92DF92EF92FF920F931F9352
:100B3000CF93DF936C017A01EB01E60EF71E00E024
:100B400010E0CE15DF0561F06991D601ED91FC91C1
:100B50000190F081E02DC6010995080F191FF1CF12
:100B6000C801DF91CF911F910F91FF90EF90DF901F
:100B7000CF9008956115710581F0DB010D90002083
:100B8000E9F7AD0141505109461B570BDC01ED91CE
:100B9000FC910280F381E02D099480E090E00895BB
:100BA0000C94BA05DC01ED91FC910190F081E02DEF
:100BB00009940F931F93CF93DF93EC016DE00E9494
:100BC000D2058C016AE0CE010E94D205800F911FF0
:100BD000DF91CF911F910F9108958F929F92AF92C5
:100BE000BF92CF92DF92EF92FF920F931F93CF931A
:100BF000DF93CDB7DEB7A1970FB6F894DEBF0FBE77
:100C0000CDBF7C01C42EE52FCB01D22E19A221E04D
:100C10002D1510F02AE0D22E8E010F5D1F4F8D2C66
:100C2000912CA12CB12C6C2D7E2FA50194010E943A
:100C3000C8068C2DD29E80191124015011098A30CA
:100C400014F4805D01C0895CF801808321153105B1
:100C50004105510521F0C22EE32FCA01E4CFB801AE
:100C6000C7010E94BA05A1960FB6F894DEBF0FBE69
:100C7000CDBFDF91CF911F910F91FF90EF90DF904B
:100C8000CF90BF90AF909F908F900895CF92DF92BA
:100C9000EF92FF920F931F93CF93DF93EC016A01C2
:100CA0007B012115310579F4E881F9810190F0810A
:100CB000E02D642FDF91CF911F910F91FF90EF9066
:100CC000DF90CF9009942A303105E9F477FF1AC0FC
:100CD0006DE20E94D2058C0144275527BA014C19B8
:100CE0005D096E097F092AE0CE010E94ED05800FA3
:100CF000911FDF91CF911F910F91FF90EF90DF90A7
:100D0000CF9008952AE0B701A601CE01DF91CF91DF
:100D10001F910F91FF90EF90DF90CF900C94ED0515
:100D20009A01AB01662757FD6095762F0C94460615
:100D30000F931F93CF93DF93EC019A01AB016627CA
:100D400057FD6095762F0E9446068C01CE010E94C9
:100D5000D905800F911FDF91CF911F910F910895B9
:100D60000E94B5020E949701C7E7D4E00E94AF013C
:100D70002097E1F30E947704F9CFF8940C940A07C6
:100D8000B7FF0C94EA060E94EA06821B930B0895B3
:100D9000A1E21A2EAA1BBB1BFD010DC0AA1FBB1F7F
:100DA000EE1FFF1FA217B307E407F50720F0A21BF1
:100DB000B30BE40BF50B661F771F881F991F1A945E
:100DC00069F760957095809590959B01AC01BD0188
:100DD000CF0108950E94FB06A59F900DB49F900D32
:100DE000A49F800D911D11240895EE0FFF1F059003
:100DF000F491E02D0994A29FB001B39FC001A39F7D
:100E0000700D811D1124911DB29F700D811D112443
:080E1000911D0895F894FFCF35
:100E18000000270220000100000100020020616399
:100E2800635F302E646174615F783A2000206163EB
:100E3800635F312E646174615F783A2000206163DA
:100E4800635F322E646174615F783A2000706F735B
:100E58003A200000000000FF039205A503D203B763
:040E680003F403008C
:00000001FF
