:100000000C945D000C9485000C9485000C94850084
:100010000C9485000C9485000C9485000C9485004C
:100020000C9485000C9485000C9485000C9485003C
:100030000C9485000C9485000C9485000C9485002C
:100040000C9427040C9485000C9405060C94480627
:100050000C9485000C9485000C9485000C9485000C
:100060000C9485000C94850000000007000201003C
:100070000003040600000000000000000102040864
:100080001020408001020408102001020408102002
:10009000040404040404040402020202020203032E
:1000A0000303030300000000250028002B000000CC
:1000B0000000240027002A00040711241FBECFEFF0
:1000C000D8E0DEBFCDBF11E0A0E0B1E0ECE6F7E1A3
:1000D00002C005900D92A236B107D9F712E0A2E650
:1000E000B1E001C01D92A734B107E1F710E0CAEBFF
:1000F000D0E004C02297FE010E94B00BC83BD1079C
:10010000C9F70E945D090C946A090C9400008830BC
:10011000910599F08930910591F0079701F561E01B
:1001200088E00E94370561E089E00E94370561E0C0
:100130008AE00E94370560E00FC060E001C061E026
:1001400088E00E94370560E089E00E94370560E0A2
:100150008AE00E94370561E08BE00E94370580E06D
:100160000C94B8048130910509F493C08230910554
:1001700009F41BC1892B09F0A3C10E94710460938B
:10018000840170938501809386019093870187E0B5
:1001900090E00E948700BC01882777FD8095982F0A
:1001A0000E94710A2DEC3CEC4CE950E40E94250BB6
:1001B00020E030E44EEC54E40E946D092DEC3CEC60
:1001C0004CE151E40E94250B20E030E045E254E48C
:1001D0000E94D609609388017093890180938A01F7
:1001E00090938B0188E090E00E948700BC018827F3
:1001F00077FD8095982F0E94710A2DEC3CEC4CE91C
:1002000050E40E94250B20E030E44EEC54E40E94C0
:100210006D092DEC3CEC4CE151E40E94250B20E0F3
:1002200030E045E254E40E94D60960938C0170935B
:100230008D0180938E0190938F0189E090E00E9460
:100240008700BC01882777FD8095982F0E94710A4E
:100250002DEC3CEC4CE950E40E94250B20E030E40E
:100260004EEC54E40E946D092DEC3CEC4CE151E461
:100270000E94250B20E030E045E254E40E94D609BC
:1002800060939001709391018093920190939301F8
:1002900008950E94710460937401709375018093B6
:1002A00076019093770187E090E00E948700BC017F
:1002B000882777FD8095982F0E94710A2DEC3CECE1
:1002C0004CE950E40E94250B20E030E44EEC54E46D
:1002D0000E946D092DEC3CEC4CE151E40E94250B91
:1002E00020E030E045E254E40E94D60960937801B2
:1002F0007093790180937A0190937B0188E090E07C
:100300000E948700BC01882777FD8095982F0E9466
:10031000710A2DEC3CEC4CE950E40E94250B20E0E6
:1003200030E44EEC54E40E946D092DEC3CEC4CE1C1
:1003300051E40E94250B20E030E045E254E40E94A5
:10034000D60960937C0170937D0180937E01909328
:100350007F0189E090E00E948700BC01882777FD3B
:100360008095982F0E94710A2DEC3CEC4CE950E4EA
:100370000E94250B20E030E44EEC54E40E946D090D
:100380002DEC3CEC4CE151E40E94250B20E030E0E8
:1003900045E254E40E94D609609380017093810184
:1003A000809382019093830108950E947104609369
:1003B000640170936501809366019093670187E003
:1003C00090E00E948700BC01882777FD8095982FD8
:1003D0000E94710A2DEC3CEC4CE950E40E94250B84
:1003E00020E030E44EEC54E40E946D092DEC3CEC2E
:1003F0004CE151E40E94250B20E030E045E254E45A
:100400000E94D609609368017093690180936A0124
:1004100090936B0188E090E00E948700BC018827E0
:1004200077FD8095982F0E94710A2DEC3CEC4CE9E9
:1004300050E40E94250B20E030E44EEC54E40E948E
:100440006D092DEC3CEC4CE151E40E94250B20E0C1
:1004500030E045E254E40E94D60960936C01709349
:100460006D0180936E0190936F0189E090E00E948E
:100470008700BC01882777FD8095982F0E94710A1C
:100480002DEC3CEC4CE950E40E94250B20E030E4DC
:100490004EEC54E40E946D092DEC3CEC4CE151E42F
:1004A0000E94250B20E030E045E254E40E94D6098A
:1004B0006093700170937101809372019093730146
:1004C00008954F925F926F927F92AF92BF92CF92B8
:1004D000DF92EF92FF920F931F93CF93DF93CDB7ED
:1004E000DEB728970FB6F894DEBF0FBECDBF698385
:1004F0007A838B839C8329013A01ED82FE820F83EC
:1005000018876E157F058007910748F5298D3A8D6C
:100510004B8D5C8DE216F3060407150708F056C0F4
:1005200020E030E040E850E4C601B5010E94250B10
:100530009B01AC01C301B2010E946E092D8D3E8D5D
:100540004F8D58A10E946E092B013C01698D7A8D57
:100550008B8D9C8D29813A814B815C8162C08D811C
:100560009E81AF81B885298D3A8D4B8D5C8D821728
:100570009307A407B50708F06AC089819A81AB8107
:10058000BC81281739074A075B0708F060C020E0E4
:1005900030E040E850E46D8D7E8D8F8D98A10E94F3
:1005A000250B9B01AC01C601B5010E946E09A30198
:1005B00092010E946E092B013C0169817A818B8135
:1005C0009C812D813E814F8158852BC0898D9A8DCC
:1005D000AB8DBC8D29813A814B815C818217930759
:1005E000A407B507A0F520E030E040E850E4C301DF
:1005F000B2010E94250B9B01AC016D8D7E8D8F8D0C
:1006000098A10E946E09A60195010E946E092B0116
:100610003C016D817E818F819885298D3A8D4B8D2E
:100620005C8D621B730B840B950B0E946F0A9B0100
:10063000AC01C301B2010E94250B20E030E040EC88
:1006400050E40E94D6090E943E0ACB0102C080E01D
:1006500090E028960FB6F894DEBF0FBECDBFDF91B5
:10066000CF911F910F91FF90EF90DF90CF90BF90AF
:10067000AF907F906F905F904F90089561E088E019
:100680000E94FE0461E089E00E94FE0461E08AE0CD
:100690000E94FE0461E08BE00E94FE0440E855E207
:1006A00060E070E08DE991E00C948306AF92BF9218
:1006B000CF92DF92EF92FF920F931F93CF93DF932E
:1006C00000D000D000D0CDB7DEB786E0E7E0F1E0A3
:1006D000DE01119601900D928A95E1F7E091620199
:1006E000F0916301EE0FFF1F21E030E02C0F3D1F62
:1006F000E20FF31F808191810E94B200809162011C
:10070000909163010196833091052CF490936301DD
:100710008093620104C010926301109262016DE047
:1007200071E08DE991E00E94980740918801509115
:10073000890160918A0170918B0122E030E08DE99E
:1007400091E00E945B096DE171E08DE991E00E940A
:100750009807409178015091790160917A017091E8
:100760007B0122E030E08DE991E00E945B096DE2BF
:1007700071E08DE991E00E949807409168015091E5
:10078000690160916A0170916B0122E030E08DE9AE
:1007900091E00E945B096DE371E08DE991E00E94B8
:1007A0009807A0907801B0907901C0907A01D0901C
:1007B0007B01E0907401F090750100917601109139
:1007C0007701209188013091890140918A015091EF
:1007D0008B016091840170918501809186019091D7
:1007E0008701E0916B01EF93E0916A01EF93E09153
:1007F0006901EF93E0916801EF93E0916701EF9356
:10080000E0916601EF93E0916501EF93E09164015F
:10081000EF930E9461020FB6F894DEBF0FBECDBF0A
:100820004AE050E0BC018DE991E026960FB6F894BD
:10083000DEBF0FBECDBFDF91CF911F910F91FF9013
:10084000EF90DF90CF90BF90AF900C9458081F921C
:100850000F920FB60F9211242F933F938F939F9374
:10086000AF93BF938091950190919601A0919701CC
:10087000B09198013091940123E0230F2D3720F49B
:100880000196A11DB11D05C026E8230F0296A11DEA
:10089000B11D209394018093950190939601A093AC
:1008A0009701B09398018091990190919A01A0913C
:1008B0009B01B0919C010196A11DB11D80939901EE
:1008C00090939A01A0939B01B0939C01BF91AF912B
:1008D0009F918F913F912F910F900FBE0F901F907E
:1008E00018952FB7F89460919501709196018091B9
:1008F0009701909198012FBF0895789484B58260F4
:1009000084BD84B5816084BD85B5826085BD85B5B3
:10091000816085BDEEE6F0E0808181608083E1E862
:10092000F0E010828081826080838081816080839A
:10093000E0E8F0E0808181608083E1EBF0E080819D
:1009400084608083E0EBF0E0808181608083EAE76F
:10095000F0E08081846080838081826080838081F8
:10096000816080838081806880831092C1000895B7
:100970008E3008F08E5087702091060190E4299FF8
:1009800090011124822B80937C0080917A008064F6
:1009900080937A0080917A0086FDFCCF8091780068
:1009A0002091790090E0922B0895833081F028F413
:1009B000813099F08230A1F008958630A9F0873017
:1009C000B9F08430D1F4809180008F7D03C0809194
:1009D00080008F7780938000089584B58F7702C060
:1009E00084B58F7D84BD08958091B0008F7703C05A
:1009F0008091B0008F7D8093B0000895CF93DF93F6
:100A000090E0FC01E458FF4F2491FC01E057FF4FB8
:100A10008491882349F190E0880F991FFC01E255E9
:100A2000FF4FA591B4918C559F4FFC01C591D49176
:100A30009FB7611108C0F8948C91209582238C9304
:100A4000888182230AC0623051F4F8948C91322F4D
:100A5000309583238C938881822B888304C0F894FB
:100A60008C91822B8C939FBFDF91CF9108950F9330
:100A70001F93CF93DF931F92CDB7DEB7282F30E0BF
:100A8000F901E859FF4F8491F901E458FF4F14919F
:100A9000F901E057FF4F04910023C9F0882321F0AA
:100AA00069830E94D5046981E02FF0E0EE0FFF1FFB
:100AB000EC55FF4FA591B4919FB7F8948C916111BB
:100AC00003C01095812301C0812B8C939FBF0F9091
:100AD000DF91CF911F910F910895FC0124853585F9
:100AE000F901E05CFF4F80819181F901EE5BFF4FDE
:100AF00020813181821B930B8F7399270895FC010C
:100B000084859585FC01E05CFF4F40815181FC01AB
:100B1000EE5BFF4F208131814217530741F0019076
:100B2000F081E02DE80FF91F808190E008958FEFAC
:100B30009FEF0895FC0184859585FC01E05CFF4FE3
:100B400040815181FC01EE5BFF4F208131814217D2
:100B5000530779F0A081B181A80FB91F8C91208132
:100B600031812F5F3F4F2F7333273183208390E0F4
:100B700008958FEF9FEF0895FC0181A1882329F04C
:100B8000A489B5898C9186FFFBCF11A20895CF93DC
:100B9000DF93FC0126853785D901A05CBF4F8D917D
:100BA0009C91119701968F739927E901CE5BDF4FD6
:100BB0004881598184179507D9F30D90BC91A02DD8
:100BC000A20FB31F6C93A685B785A05CBF4F11968B
:100BD0009C938E93A689B7892C9181E090E0078C35
:100BE00002C0880F991F0A94E2F7282B2C9381E00A
:100BF00081A30488F589E02D80818064808381E071
:100C000090E0DF91CF91089508951F920F920FB653
:100C10000F9211242F933F934F938F939F93EF93B2
:100C2000FF938091C00082FD1CC04091C60080915E
:100C300043029091440201968F73992720914502B7
:100C4000309146028217930771F0E0914302F091D0
:100C50004402ED5FFD4F4083909344028093430232
:100C600002C08091C600FF91EF919F918F914F91AB
:100C70003F912F910F900FBE0F901F9018958DE907
:100C800091E00E946D05892B11F00C9404060895E3
:100C90001F920F920FB60F9211242F933F938F93B1
:100CA0009F93EF93FF932091FF0130910002809179
:100CB0000102909102022817390731F48091C10096
:100CC0008F7D8093C10014C0E0910102F091020277
:100CD000E154FE4F20818091010290910202019621
:100CE0008F73992790930202809301022093C6008C
:100CF000FF91EF919F918F913F912F910F900FBE98
:100D00000F901F901895CF92DF92EF92FF92CF93A2
:100D1000DF93EC016A017B01411581EE5807610503
:100D20007105F9F0EC89FD8981E090E008A002C02E
:100D3000880F991F0A94E2F7808360E079E08DE3E1
:100D400090E0A70196010E948C0B215031094109C6
:100D500051095695479537952795211580E1380714
:100D600098F0EC89FD89108260E874E88EE190E0EB
:100D7000A70196010E948C0B2150310941095109AC
:100D80005695479537952795E889F9893083EA89FB
:100D9000FB89208319A2EE89FF89408181E090E0E0
:100DA0009C010C8C02C0220F331F0A94E2F7422BE5
:100DB0004083EE89FF8940819C010D8C02C0220F87
:100DC000331F0A94E2F7422B4083EE89FF8940816A
:100DD0009C010E8C02C0220F331F0A94E2F7422BB3
:100DE0004083EE89FF8920810F8C02C0880F991FF4
:100DF0000A94E2F7809582238083DF91CF91FF9060
:100E0000EF90DF90CF9008951092A00110929F0173
:100E100088EE93E0A0E0B0E08093A1019093A2015E
:100E2000A093A301B093A40188E491E090939E0164
:100E300080939D0183E092E09093AA018093A901A1
:100E40008FEB91E09093AC018093AB0185EC90E047
:100E50009093AE018093AD0184EC90E09093B0014B
:100E60008093AF0180EC90E09093B2018093B10148
:100E700081EC90E09093B4018093B30182EC90E018
:100E80009093B6018093B50186EC90E09093B80101
:100E90008093B70184E08093B90183E08093BA0125
:100EA00087E08093BB0185E08093BC0181E0809363
:100EB000BD010895CF92DF92EF92FF920F931F939F
:100EC000CF93DF936C017A01EB01E60EF71E00E091
:100ED00010E0CE15DF0561F06991D601ED91FC912E
:100EE0000190F081E02DC6010995080F191FF1CF7F
:100EF000C801DF91CF911F910F91FF90EF90DF908C
:100F0000CF9008956115710581F0DB010D900020EF
:100F1000E9F7AD0141505109461B570BDC01ED913A
:100F2000FC910280F381E02D099480E090E0089527
:100F30000C948207DC01ED91FC910190F081E02D91
:100F400009940F931F93CF93DF93EC016DE00E9400
:100F50009A078C016AE0CE010E949A07800F911FC8
:100F6000DF91CF911F910F9108958F929F92AF9231
:100F7000BF92CF92DF92EF92FF920F931F93CF9386
:100F8000DF93CDB7DEB7A1970FB6F894DEBF0FBEE3
:100F9000CDBF7C01C42EE52FCB01D22E19A221E0BA
:100FA0002D1510F02AE0D22E8E010F5D1F4F8D2CD3
:100FB000912CA12CB12C6C2D7E2FA50194010E94A7
:100FC0008C0B8C2DD29E80191124015011098A306E
:100FD00014F4805D01C0895CF8018083211531051E
:100FE0004105510521F0C22EE32FCA01E4CFB8011B
:100FF000C7010E948207A1960FB6F894DEBF0FBE0C
:10100000CDBFDF91CF911F910F91FF90EF90DF90B7
:10101000CF90BF90AF909F908F900895CF92DF9226
:10102000EF92FF920F931F93CF93DF93EC016A012E
:101030007B012115310579F4E881F9810190F08176
:10104000E02D642FDF91CF911F910F91FF90EF90D2
:10105000DF90CF9009942A303105E9F477FF1AC068
:101060006DE20E949A078C0144275527BA014C195A
:101070005D096E097F092AE0CE010E94B507800F45
:10108000911FDF91CF911F910F91FF90EF90DF9013
:10109000CF9008952AE0B701A601CE01DF91CF914C
:1010A0001F910F91FF90EF90DF90CF900C94B507B8
:1010B0000F931F93CF93DF93EC019A01AB01662747
:1010C00057FD6095762F0E940E088C01CE010E947C
:1010D000A107800F911FDF91CF911F910F9108956C
:1010E0004F925F926F927F928F929F92AF92BF9238
:1010F000CF92DF92EF92FF920F931F93CF93DF93E4
:10110000EC016A017B01B22E9A01AB01C701B60165
:101110000E94880B882319F064E571E027C026013E
:101120003701E89477F82FEF3FEF4FE75FE7C30110
:10113000B2010E94880B81110DC02FEF3FEF4FE7E6
:101140005FE7C301B2010E94D20918161CF468E5DA
:1011500071E00CC02FEF3FEF4FE75FE4C701B6012E
:101160000E94210B1816ACF46CE571E0CE01DF9102
:10117000CF911F910F91FF90EF90DF90CF90BF9094
:10118000AF909F908F907F906F905F904F900C9456
:1011900082072FEF3FEF4FE75FECC701B6010E94D8
:1011A000D20987FDE1CF20E030E0A901C701B601F7
:1011B0000E94D20987FF0AC06DE2CE010E949A0701
:1011C0008C01F7FAF094F7F8F09402C000E010E018
:1011D000A12C60E070E080E09FE3AB1441F020E0E0
:1011E00030E040E251E40E94D609A394F6CF9B017F
:1011F000AC01C701B6010E946E096B017C010E941F
:10120000430A2B013C010E946F0A9B01AC01C701FC
:10121000B6010E946D096B017C012AE0B301A201B5
:10122000CE010E94B507080F191FBB2039F060E6F8
:1012300071E0CE010E948207080F191F7B2C7720D6
:1012400041F120E030E040E251E4C701B6010E94E4
:10125000250B6B017C010E943E0A4B01AA2497FCDE
:10126000A094BA2C2AE030E0B501A401CE010E947E
:101270000E08080F191FC501B4010E94710A9B01D5
:10128000AC01C701B6010E946D096B017C017A9423
:10129000D6CFC801DF91CF911F910F91FF90EF90B2
:1012A000DF90CF90BF90AF909F908F907F906F9086
:1012B0005F904F9008950C9470080E947D040E94E6
:1012C0003E03CFE3D6E00E9456032097E1F30E944D
:1012D0003F06F9CFF8940C94B40B5058BB27AA27BB
:1012E0000ED075C166D130F06BD120F031F49F3F44
:1012F00011F41EF45BC10EF4E095E7FB51C1E92F38
:1013000077D180F3BA17620773078407950718F03F
:1013100071F49EF58FC10EF4E0950B2EBA2FA02D1F
:101320000B01B90190010C01CA01A0011124FF2792
:10133000591B99F0593F50F4503E68F11A16F0408D
:10134000A22F232F342F4427585FF3CF469537958C
:101350002795A795F0405395C9F77EF41F16BA0B51
:10136000620B730B840BBAF09150A1F0FF0FBB1FFF
:10137000661F771F881FC2F70EC0BA0F621F731F48
:10138000841F48F4879577956795B795F7959E3FA5
:1013900008F0B3CF9395880F08F09927EE0F979533
:1013A00087950895D9D008F481E008950CD00FC135
:1013B00007D140F0FED030F021F45F3F19F0F0C0CB
:1013C000511139C1F3C014D198F39923C9F35523AE
:1013D000B1F3951B550BBB27AA2762177307840728
:1013E00038F09F5F5F4F220F331F441FAA1FA9F3DE
:1013F00033D00E2E3AF0E0E830D091505040E695D0
:10140000001CCAF729D0FE2F27D0660F771F881F30
:10141000BB1F261737074807AB07B0E809F0BB0B1F
:10142000802DBF01FF2793585F4F2AF09E3F510543
:1014300068F0B6C000C15F3FECF3983EDCF38695E0
:1014400077956795B795F7959F5FC9F7880F911DB9
:101450009695879597F90895E1E0660F771F881FA5
:10146000BB1F621773078407BA0720F0621B730B58
:10147000840BBA0BEE1F88F7E095089504D06894AA
:10148000B111D9C00895BCD088F09F5790F0B92F02
:101490009927B751A0F0D1F0660F771F881F991FC9
:1014A0001AF0BA95C9F712C0B13081F0C3D0B1E0DB
:1014B0000895C0C0672F782F8827B85F39F0B93FEB
:1014C000CCF3869577956795B395D9F73EF49095CB
:1014D0008095709561957F4F8F4F9F4F0895E89449
:1014E00009C097FB3EF490958095709561957F4F6C
:1014F0008F4F9F4F9923A9F0F92F96E9BB2793951A
:10150000F695879577956795B795F111F8CFFAF429
:10151000BB0F11F460FF1BC06F5F7F4F8F4F9F4F5A
:1015200016C0882311F096E911C0772321F09EE8B8
:10153000872F762F05C0662371F096E8862F70E01E
:1015400060E02AF09A95660F771F881FDAF7880FF8
:101550009695879597F90895990F0008550FAA0B4E
:10156000E0E8FEEF16161706E807F907C0F01216B6
:101570001306E407F50798F0621B730B840B950BB9
:1015800039F40A2661F0232B242B252B21F408950E
:101590000A2609F4A140A6958FEF811D811D0895AB
:1015A00097F99F6780E870E060E008959FEF80EC16
:1015B000089500240A9416161706180609060895B9
:1015C00000240A9412161306140605060895092E1F
:1015D0000394000C11F4882352F0BB0F40F4BF2B8E
:1015E00011F460FF04C06F5F7F4F8F4F9F4F0895CE
:1015F00057FD9058440F551F59F05F3F71F04795C4
:10160000880F97FB991F61F09F3F79F087950895A8
:10161000121613061406551FF2CF4695F1DF08C0C7
:10162000161617061806991FF1CF869571056105E4
:1016300008940895E894BB2766277727CB0197F98C
:1016400008958ADF08F48FEF08950BD0C0CFB1DF83
:1016500028F0B6DF18F0952309F0A2CFA7CF112408
:10166000EACFC6DFA0F3959FD1F3950F50E0551F49
:10167000629FF001729FBB27F00DB11D639FAA27E7
:10168000F00DB11DAA1F649F6627B00DA11D661F36
:10169000829F2227B00DA11D621F739FB00DA11D57
:1016A000621F839FA00D611D221F749F3327A00D11
:1016B000611D231F849F600D211D822F762F6A2FAD
:1016C00011249F5750408AF0E1F088234AF0EE0F32
:1016D000FF1FBB1F661F771F881F91505040A9F73F
:1016E0009E3F510570F05CCFA6CF5F3FECF3983E74
:1016F000DCF3869577956795B795F795E7959F5FA6
:10170000C1F7FE2B880F911D9695879597F908953F
:1017100023DF880B990B0895A1E21A2EAA1BBB1B8D
:10172000FD010DC0AA1FBB1FEE1FFF1FA217B307AD
:10173000E407F50720F0A21BB30BE40BF50B661FC3
:10174000771F881F991F1A9469F760957095809587
:1017500090959B01AC01BD01CF010895EE0FFF1FD5
:0C1760000590F491E02D0994F894FFCF5F
:10176C00000047022000010000010002002061631C
:10177C00635F302E646174615F783A20002061638E
:10178C00635F312E646174615F783A20002061637D
:10179C00635F322E646174615F783A200020706F51
:1017AC00733A200000000000C7055A076D059A0522
:1017BC007F05BC056E616E00696E66006F76660013
:0217CC002E00ED
:00000001FF
